{
  "_format": "hh-sol-artifact-1",
  "contractName": "NhouseNFT",
  "sourceName": "contracts/NhouseNFT.sol",
  "abi": [
    {
      "inputs": [],
      "stateMutability": "nonpayable",
      "type": "constructor"
    },
    {
      "anonymous": false,
      "inputs": [
        {
          "indexed": true,
          "internalType": "address",
          "name": "owner",
          "type": "address"
        },
        {
          "indexed": true,
          "internalType": "address",
          "name": "approved",
          "type": "address"
        },
        {
          "indexed": true,
          "internalType": "uint256",
          "name": "tokenId",
          "type": "uint256"
        }
      ],
      "name": "Approval",
      "type": "event"
    },
    {
      "anonymous": false,
      "inputs": [
        {
          "indexed": true,
          "internalType": "address",
          "name": "owner",
          "type": "address"
        },
        {
          "indexed": true,
          "internalType": "address",
          "name": "operator",
          "type": "address"
        },
        {
          "indexed": false,
          "internalType": "bool",
          "name": "approved",
          "type": "bool"
        }
      ],
      "name": "ApprovalForAll",
      "type": "event"
    },
    {
      "anonymous": false,
      "inputs": [
        {
          "indexed": false,
          "internalType": "uint256",
          "name": "_fromTokenId",
          "type": "uint256"
        },
        {
          "indexed": false,
          "internalType": "uint256",
          "name": "_toTokenId",
          "type": "uint256"
        }
      ],
      "name": "BatchMetadataUpdate",
      "type": "event"
    },
    {
      "anonymous": false,
      "inputs": [
        {
          "indexed": false,
          "internalType": "uint256",
          "name": "_tokenId",
          "type": "uint256"
        }
      ],
      "name": "MetadataUpdate",
      "type": "event"
    },
    {
      "anonymous": false,
      "inputs": [
        {
          "indexed": true,
          "internalType": "address",
          "name": "previousOwner",
          "type": "address"
        },
        {
          "indexed": true,
          "internalType": "address",
          "name": "newOwner",
          "type": "address"
        }
      ],
      "name": "OwnershipTransferred",
      "type": "event"
    },
    {
      "anonymous": false,
      "inputs": [
        {
          "indexed": true,
          "internalType": "address",
          "name": "from",
          "type": "address"
        },
        {
          "indexed": true,
          "internalType": "address",
          "name": "to",
          "type": "address"
        },
        {
          "indexed": true,
          "internalType": "uint256",
          "name": "tokenId",
          "type": "uint256"
        }
      ],
      "name": "Transfer",
      "type": "event"
    },
    {
      "inputs": [
        {
          "internalType": "address",
          "name": "to",
          "type": "address"
        },
        {
          "internalType": "uint256",
          "name": "tokenId",
          "type": "uint256"
        }
      ],
      "name": "approve",
      "outputs": [],
      "stateMutability": "nonpayable",
      "type": "function"
    },
    {
      "inputs": [
        {
          "internalType": "address",
          "name": "owner",
          "type": "address"
        }
      ],
      "name": "balanceOf",
      "outputs": [
        {
          "internalType": "uint256",
          "name": "",
          "type": "uint256"
        }
      ],
      "stateMutability": "view",
      "type": "function"
    },
    {
      "inputs": [
        {
          "internalType": "uint256",
          "name": "tokenId",
          "type": "uint256"
        }
      ],
      "name": "getApproved",
      "outputs": [
        {
          "internalType": "address",
          "name": "",
          "type": "address"
        }
      ],
      "stateMutability": "view",
      "type": "function"
    },
    {
      "inputs": [
        {
          "internalType": "address",
          "name": "address_",
          "type": "address"
        }
      ],
      "name": "getTokenUriFromAddress",
      "outputs": [
        {
          "internalType": "string[]",
          "name": "",
          "type": "string[]"
        }
      ],
      "stateMutability": "view",
      "type": "function"
    },
    {
      "inputs": [
        {
          "internalType": "address",
          "name": "owner",
          "type": "address"
        },
        {
          "internalType": "address",
          "name": "operator",
          "type": "address"
        }
      ],
      "name": "isApprovedForAll",
      "outputs": [
        {
          "internalType": "bool",
          "name": "",
          "type": "bool"
        }
      ],
      "stateMutability": "view",
      "type": "function"
    },
    {
      "inputs": [
        {
          "internalType": "address",
          "name": "recipient",
          "type": "address"
        },
        {
          "internalType": "string",
          "name": "tokenURI",
          "type": "string"
        }
      ],
      "name": "mintNFT",
      "outputs": [
        {
          "internalType": "uint256",
          "name": "",
          "type": "uint256"
        }
      ],
      "stateMutability": "nonpayable",
      "type": "function"
    },
    {
      "inputs": [],
      "name": "name",
      "outputs": [
        {
          "internalType": "string",
          "name": "",
          "type": "string"
        }
      ],
      "stateMutability": "view",
      "type": "function"
    },
    {
      "inputs": [],
      "name": "owner",
      "outputs": [
        {
          "internalType": "address",
          "name": "",
          "type": "address"
        }
      ],
      "stateMutability": "view",
      "type": "function"
    },
    {
      "inputs": [
        {
          "internalType": "uint256",
          "name": "tokenId",
          "type": "uint256"
        }
      ],
      "name": "ownerOf",
      "outputs": [
        {
          "internalType": "address",
          "name": "",
          "type": "address"
        }
      ],
      "stateMutability": "view",
      "type": "function"
    },
    {
      "inputs": [],
      "name": "renounceOwnership",
      "outputs": [],
      "stateMutability": "nonpayable",
      "type": "function"
    },
    {
      "inputs": [
        {
          "internalType": "address",
          "name": "from",
          "type": "address"
        },
        {
          "internalType": "address",
          "name": "to",
          "type": "address"
        },
        {
          "internalType": "uint256",
          "name": "tokenId",
          "type": "uint256"
        }
      ],
      "name": "safeTransferFrom",
      "outputs": [],
      "stateMutability": "nonpayable",
      "type": "function"
    },
    {
      "inputs": [
        {
          "internalType": "address",
          "name": "from",
          "type": "address"
        },
        {
          "internalType": "address",
          "name": "to",
          "type": "address"
        },
        {
          "internalType": "uint256",
          "name": "tokenId",
          "type": "uint256"
        },
        {
          "internalType": "bytes",
          "name": "data",
          "type": "bytes"
        }
      ],
      "name": "safeTransferFrom",
      "outputs": [],
      "stateMutability": "nonpayable",
      "type": "function"
    },
    {
      "inputs": [
        {
          "internalType": "address",
          "name": "operator",
          "type": "address"
        },
        {
          "internalType": "bool",
          "name": "approved",
          "type": "bool"
        }
      ],
      "name": "setApprovalForAll",
      "outputs": [],
      "stateMutability": "nonpayable",
      "type": "function"
    },
    {
      "inputs": [
        {
          "internalType": "bytes4",
          "name": "interfaceId",
          "type": "bytes4"
        }
      ],
      "name": "supportsInterface",
      "outputs": [
        {
          "internalType": "bool",
          "name": "",
          "type": "bool"
        }
      ],
      "stateMutability": "view",
      "type": "function"
    },
    {
      "inputs": [],
      "name": "symbol",
      "outputs": [
        {
          "internalType": "string",
          "name": "",
          "type": "string"
        }
      ],
      "stateMutability": "view",
      "type": "function"
    },
    {
      "inputs": [
        {
          "internalType": "uint256",
          "name": "index",
          "type": "uint256"
        }
      ],
      "name": "tokenByIndex",
      "outputs": [
        {
          "internalType": "uint256",
          "name": "",
          "type": "uint256"
        }
      ],
      "stateMutability": "view",
      "type": "function"
    },
    {
      "inputs": [
        {
          "internalType": "address",
          "name": "owner",
          "type": "address"
        },
        {
          "internalType": "uint256",
          "name": "index",
          "type": "uint256"
        }
      ],
      "name": "tokenOfOwnerByIndex",
      "outputs": [
        {
          "internalType": "uint256",
          "name": "",
          "type": "uint256"
        }
      ],
      "stateMutability": "view",
      "type": "function"
    },
    {
      "inputs": [
        {
          "internalType": "uint256",
          "name": "tokenId",
          "type": "uint256"
        }
      ],
      "name": "tokenURI",
      "outputs": [
        {
          "internalType": "string",
          "name": "",
          "type": "string"
        }
      ],
      "stateMutability": "view",
      "type": "function"
    },
    {
      "inputs": [],
      "name": "totalSupply",
      "outputs": [
        {
          "internalType": "uint256",
          "name": "",
          "type": "uint256"
        }
      ],
      "stateMutability": "view",
      "type": "function"
    },
    {
      "inputs": [
        {
          "internalType": "address",
          "name": "from",
          "type": "address"
        },
        {
          "internalType": "address",
          "name": "to",
          "type": "address"
        },
        {
          "internalType": "uint256",
          "name": "tokenId",
          "type": "uint256"
        }
      ],
      "name": "transferFrom",
      "outputs": [],
      "stateMutability": "nonpayable",
      "type": "function"
    },
    {
      "inputs": [
        {
          "internalType": "address",
          "name": "newOwner",
          "type": "address"
        }
      ],
      "name": "transferOwnership",
      "outputs": [],
      "stateMutability": "nonpayable",
      "type": "function"
    }
  ],
  "bytecode": "0x60806040523480156200001157600080fd5b506040518060400160405280600981526020017f4e686f7573654e465400000000000000000000000000000000000000000000008152506040518060400160405280600481526020017f4e4e465400000000000000000000000000000000000000000000000000000000815250816000908051906020019062000096929190620001a6565b508060019080519060200190620000af929190620001a6565b505050620000d2620000c6620000d860201b60201c565b620000e060201b60201c565b620002bb565b600033905090565b6000600b60009054906101000a900473ffffffffffffffffffffffffffffffffffffffff16905081600b60006101000a81548173ffffffffffffffffffffffffffffffffffffffff021916908373ffffffffffffffffffffffffffffffffffffffff1602179055508173ffffffffffffffffffffffffffffffffffffffff168173ffffffffffffffffffffffffffffffffffffffff167f8be0079c531659141344cd1fd0a4f28419497f9722a3daafe3b4186f6b6457e060405160405180910390a35050565b828054620001b49062000285565b90600052602060002090601f016020900481019282620001d8576000855562000224565b82601f10620001f357805160ff191683800117855562000224565b8280016001018555821562000224579182015b828111156200022357825182559160200191906001019062000206565b5b50905062000233919062000237565b5090565b5b808211156200025257600081600090555060010162000238565b5090565b7f4e487b7100000000000000000000000000000000000000000000000000000000600052602260045260246000fd5b600060028204905060018216806200029e57607f821691505b60208210811415620002b557620002b462000256565b5b50919050565b61386980620002cb6000396000f3fe608060405234801561001057600080fd5b50600436106101375760003560e01c80636352211e116100b8578063a22cb4651161007c578063a22cb46514610362578063b88d4fde1461037e578063c87b56dd1461039a578063e985e9c5146103ca578063eacabe14146103fa578063f2fde38b1461042a57610137565b80636352211e146102bc57806370a08231146102ec578063715018a61461031c5780638da5cb5b1461032657806395d89b411461034457610137565b80631c701361116100ff5780631c701361146101f457806323b872dd146102245780632f745c591461024057806342842e0e146102705780634f6ccce71461028c57610137565b806301ffc9a71461013c57806306fdde031461016c578063081812fc1461018a578063095ea7b3146101ba57806318160ddd146101d6575b600080fd5b610156600480360381019061015191906124e0565b610446565b6040516101639190612528565b60405180910390f35b610174610458565b60405161018191906125dc565b60405180910390f35b6101a4600480360381019061019f9190612634565b6104ea565b6040516101b191906126a2565b60405180910390f35b6101d460048036038101906101cf91906126e9565b610530565b005b6101de610648565b6040516101eb9190612738565b60405180910390f35b61020e60048036038101906102099190612753565b610655565b60405161021b919061288c565b60405180910390f35b61023e600480360381019061023991906128ae565b610715565b005b61025a600480360381019061025591906126e9565b610775565b6040516102679190612738565b60405180910390f35b61028a600480360381019061028591906128ae565b61081a565b005b6102a660048036038101906102a19190612634565b61083a565b6040516102b39190612738565b60405180910390f35b6102d660048036038101906102d19190612634565b6108ab565b6040516102e391906126a2565b60405180910390f35b61030660048036038101906103019190612753565b610932565b6040516103139190612738565b60405180910390f35b6103246109ea565b005b61032e6109fe565b60405161033b91906126a2565b60405180910390f35b61034c610a28565b60405161035991906125dc565b60405180910390f35b61037c6004803603810190610377919061292d565b610aba565b005b61039860048036038101906103939190612aa2565b610ad0565b005b6103b460048036038101906103af9190612634565b610b32565b6040516103c191906125dc565b60405180910390f35b6103e460048036038101906103df9190612b25565b610b44565b6040516103f19190612528565b60405180910390f35b610414600480360381019061040f9190612c06565b610bd8565b6040516104219190612738565b60405180910390f35b610444600480360381019061043f9190612753565b610c18565b005b600061045182610c9c565b9050919050565b60606000805461046790612c91565b80601f016020809104026020016040519081016040528092919081815260200182805461049390612c91565b80156104e05780601f106104b5576101008083540402835291602001916104e0565b820191906000526020600020905b8154815290600101906020018083116104c357829003601f168201915b5050505050905090565b60006104f582610d16565b6004600083815260200190815260200160002060009054906101000a900473ffffffffffffffffffffffffffffffffffffffff169050919050565b600061053b826108ab565b90508073ffffffffffffffffffffffffffffffffffffffff168373ffffffffffffffffffffffffffffffffffffffff1614156105ac576040517f08c379a00000000000000000000000000000000000000000000000000000000081526004016105a390612d35565b60405180910390fd5b8073ffffffffffffffffffffffffffffffffffffffff166105cb610d61565b73ffffffffffffffffffffffffffffffffffffffff1614806105fa57506105f9816105f4610d61565b610b44565b5b610639576040517f08c379a000000000000000000000000000000000000000000000000000000000815260040161063090612dc7565b60405180910390fd5b6106438383610d69565b505050565b6000600980549050905090565b6060600061066283610932565b905060008167ffffffffffffffff8111156106805761067f612977565b5b6040519080825280602002602001820160405280156106b357816020015b606081526020019060019003908161069e5790505b50905060005b8281101561070a5760006106cd8683610775565b90506106d881610b32565b8383815181106106eb576106ea612de7565b5b602002602001018190525050808061070290612e45565b9150506106b9565b508092505050919050565b610726610720610d61565b82610e22565b610765576040517f08c379a000000000000000000000000000000000000000000000000000000000815260040161075c90612f00565b60405180910390fd5b610770838383610eb7565b505050565b600061078083610932565b82106107c1576040517f08c379a00000000000000000000000000000000000000000000000000000000081526004016107b890612f92565b60405180910390fd5b600760008473ffffffffffffffffffffffffffffffffffffffff1673ffffffffffffffffffffffffffffffffffffffff168152602001908152602001600020600083815260200190815260200160002054905092915050565b61083583838360405180602001604052806000815250610ad0565b505050565b6000610844610648565b8210610885576040517f08c379a000000000000000000000000000000000000000000000000000000000815260040161087c90613024565b60405180910390fd5b6009828154811061089957610898612de7565b5b90600052602060002001549050919050565b6000806108b7836111b1565b9050600073ffffffffffffffffffffffffffffffffffffffff168173ffffffffffffffffffffffffffffffffffffffff161415610929576040517f08c379a000000000000000000000000000000000000000000000000000000000815260040161092090613090565b60405180910390fd5b80915050919050565b60008073ffffffffffffffffffffffffffffffffffffffff168273ffffffffffffffffffffffffffffffffffffffff1614156109a3576040517f08c379a000000000000000000000000000000000000000000000000000000000815260040161099a90613122565b60405180910390fd5b600360008373ffffffffffffffffffffffffffffffffffffffff1673ffffffffffffffffffffffffffffffffffffffff168152602001908152602001600020549050919050565b6109f26111ee565b6109fc600061126c565b565b6000600b60009054906101000a900473ffffffffffffffffffffffffffffffffffffffff16905090565b606060018054610a3790612c91565b80601f0160208091040260200160405190810160405280929190818152602001828054610a6390612c91565b8015610ab05780601f10610a8557610100808354040283529160200191610ab0565b820191906000526020600020905b815481529060010190602001808311610a9357829003601f168201915b5050505050905090565b610acc610ac5610d61565b8383611332565b5050565b610ae1610adb610d61565b83610e22565b610b20576040517f08c379a0000000000000000000000000000000000000000000000000000000008152600401610b1790612f00565b60405180910390fd5b610b2c8484848461149f565b50505050565b6060610b3d826114fb565b9050919050565b6000600560008473ffffffffffffffffffffffffffffffffffffffff1673ffffffffffffffffffffffffffffffffffffffff16815260200190815260200160002060008373ffffffffffffffffffffffffffffffffffffffff1673ffffffffffffffffffffffffffffffffffffffff16815260200190815260200160002060009054906101000a900460ff16905092915050565b6000610be26111ee565b610bec600c61160e565b6000610bf8600c611624565b9050610c048482611632565b610c0e8184611850565b8091505092915050565b610c206111ee565b600073ffffffffffffffffffffffffffffffffffffffff168173ffffffffffffffffffffffffffffffffffffffff161415610c90576040517f08c379a0000000000000000000000000000000000000000000000000000000008152600401610c87906131b4565b60405180910390fd5b610c998161126c565b50565b60007f780e9d63000000000000000000000000000000000000000000000000000000007bffffffffffffffffffffffffffffffffffffffffffffffffffffffff1916827bffffffffffffffffffffffffffffffffffffffffffffffffffffffff19161480610d0f5750610d0e826118fb565b5b9050919050565b610d1f8161195c565b610d5e576040517f08c379a0000000000000000000000000000000000000000000000000000000008152600401610d5590613090565b60405180910390fd5b50565b600033905090565b816004600083815260200190815260200160002060006101000a81548173ffffffffffffffffffffffffffffffffffffffff021916908373ffffffffffffffffffffffffffffffffffffffff160217905550808273ffffffffffffffffffffffffffffffffffffffff16610ddc836108ab565b73ffffffffffffffffffffffffffffffffffffffff167f8c5be1e5ebec7d5bd14f71427d1e84f3dd0314c0f7b2291e5b200ac8c7c3b92560405160405180910390a45050565b600080610e2e836108ab565b90508073ffffffffffffffffffffffffffffffffffffffff168473ffffffffffffffffffffffffffffffffffffffff161480610e705750610e6f8185610b44565b5b80610eae57508373ffffffffffffffffffffffffffffffffffffffff16610e96846104ea565b73ffffffffffffffffffffffffffffffffffffffff16145b91505092915050565b8273ffffffffffffffffffffffffffffffffffffffff16610ed7826108ab565b73ffffffffffffffffffffffffffffffffffffffff1614610f2d576040517f08c379a0000000000000000000000000000000000000000000000000000000008152600401610f2490613246565b60405180910390fd5b600073ffffffffffffffffffffffffffffffffffffffff168273ffffffffffffffffffffffffffffffffffffffff161415610f9d576040517f08c379a0000000000000000000000000000000000000000000000000000000008152600401610f94906132d8565b60405180910390fd5b610faa838383600161199d565b8273ffffffffffffffffffffffffffffffffffffffff16610fca826108ab565b73ffffffffffffffffffffffffffffffffffffffff1614611020576040517f08c379a000000000000000000000000000000000000000000000000000000000815260040161101790613246565b60405180910390fd5b6004600082815260200190815260200160002060006101000a81549073ffffffffffffffffffffffffffffffffffffffff02191690556001600360008573ffffffffffffffffffffffffffffffffffffffff1673ffffffffffffffffffffffffffffffffffffffff168152602001908152602001600020600082825403925050819055506001600360008473ffffffffffffffffffffffffffffffffffffffff1673ffffffffffffffffffffffffffffffffffffffff16815260200190815260200160002060008282540192505081905550816002600083815260200190815260200160002060006101000a81548173ffffffffffffffffffffffffffffffffffffffff021916908373ffffffffffffffffffffffffffffffffffffffff160217905550808273ffffffffffffffffffffffffffffffffffffffff168473ffffffffffffffffffffffffffffffffffffffff167fddf252ad1be2c89b69c2b068fc378daa952ba7f163c4a11628f55a4df523b3ef60405160405180910390a46111ac83838360016119af565b505050565b60006002600083815260200190815260200160002060009054906101000a900473ffffffffffffffffffffffffffffffffffffffff169050919050565b6111f6610d61565b73ffffffffffffffffffffffffffffffffffffffff166112146109fe565b73ffffffffffffffffffffffffffffffffffffffff161461126a576040517f08c379a000000000000000000000000000000000000000000000000000000000815260040161126190613344565b60405180910390fd5b565b6000600b60009054906101000a900473ffffffffffffffffffffffffffffffffffffffff16905081600b60006101000a81548173ffffffffffffffffffffffffffffffffffffffff021916908373ffffffffffffffffffffffffffffffffffffffff1602179055508173ffffffffffffffffffffffffffffffffffffffff168173ffffffffffffffffffffffffffffffffffffffff167f8be0079c531659141344cd1fd0a4f28419497f9722a3daafe3b4186f6b6457e060405160405180910390a35050565b8173ffffffffffffffffffffffffffffffffffffffff168373ffffffffffffffffffffffffffffffffffffffff1614156113a1576040517f08c379a0000000000000000000000000000000000000000000000000000000008152600401611398906133b0565b60405180910390fd5b80600560008573ffffffffffffffffffffffffffffffffffffffff1673ffffffffffffffffffffffffffffffffffffffff16815260200190815260200160002060008473ffffffffffffffffffffffffffffffffffffffff1673ffffffffffffffffffffffffffffffffffffffff16815260200190815260200160002060006101000a81548160ff0219169083151502179055508173ffffffffffffffffffffffffffffffffffffffff168373ffffffffffffffffffffffffffffffffffffffff167f17307eab39ab6107e8899845ad3d59bd9653f200f220920489ca2b5937696c31836040516114929190612528565b60405180910390a3505050565b6114aa848484610eb7565b6114b6848484846119b5565b6114f5576040517f08c379a00000000000000000000000000000000000000000000000000000000081526004016114ec90613442565b60405180910390fd5b50505050565b606061150682610d16565b600060066000848152602001908152602001600020805461152690612c91565b80601f016020809104026020016040519081016040528092919081815260200182805461155290612c91565b801561159f5780601f106115745761010080835404028352916020019161159f565b820191906000526020600020905b81548152906001019060200180831161158257829003601f168201915b5050505050905060006115b0611b4c565b90506000815114156115c6578192505050611609565b6000825111156115fb5780826040516020016115e392919061349e565b60405160208183030381529060405292505050611609565b61160484611b63565b925050505b919050565b6001816000016000828254019250508190555050565b600081600001549050919050565b600073ffffffffffffffffffffffffffffffffffffffff168273ffffffffffffffffffffffffffffffffffffffff1614156116a2576040517f08c379a00000000000000000000000000000000000000000000000000000000081526004016116999061350e565b60405180910390fd5b6116ab8161195c565b156116eb576040517f08c379a00000000000000000000000000000000000000000000000000000000081526004016116e29061357a565b60405180910390fd5b6116f960008383600161199d565b6117028161195c565b15611742576040517f08c379a00000000000000000000000000000000000000000000000000000000081526004016117399061357a565b60405180910390fd5b6001600360008473ffffffffffffffffffffffffffffffffffffffff1673ffffffffffffffffffffffffffffffffffffffff16815260200190815260200160002060008282540192505081905550816002600083815260200190815260200160002060006101000a81548173ffffffffffffffffffffffffffffffffffffffff021916908373ffffffffffffffffffffffffffffffffffffffff160217905550808273ffffffffffffffffffffffffffffffffffffffff16600073ffffffffffffffffffffffffffffffffffffffff167fddf252ad1be2c89b69c2b068fc378daa952ba7f163c4a11628f55a4df523b3ef60405160405180910390a461184c6000838360016119af565b5050565b6118598261195c565b611898576040517f08c379a000000000000000000000000000000000000000000000000000000000815260040161188f9061360c565b60405180910390fd5b806006600084815260200190815260200160002090805190602001906118bf9291906123d1565b507ff8e1a15aba9398e019f0b49df1a4fde98ee17ae345cb5f6b5e2c27f5033e8ce7826040516118ef9190612738565b60405180910390a15050565b6000634906490660e01b7bffffffffffffffffffffffffffffffffffffffffffffffffffffffff1916827bffffffffffffffffffffffffffffffffffffffffffffffffffffffff19161480611955575061195482611bcb565b5b9050919050565b60008073ffffffffffffffffffffffffffffffffffffffff1661197e836111b1565b73ffffffffffffffffffffffffffffffffffffffff1614159050919050565b6119a984848484611cad565b50505050565b50505050565b60006119d68473ffffffffffffffffffffffffffffffffffffffff16611e0d565b15611b3f578373ffffffffffffffffffffffffffffffffffffffff1663150b7a026119ff610d61565b8786866040518563ffffffff1660e01b8152600401611a219493929190613681565b602060405180830381600087803b158015611a3b57600080fd5b505af1925050508015611a6c57506040513d601f19601f82011682018060405250810190611a6991906136e2565b60015b611aef573d8060008114611a9c576040519150601f19603f3d011682016040523d82523d6000602084013e611aa1565b606091505b50600081511415611ae7576040517f08c379a0000000000000000000000000000000000000000000000000000000008152600401611ade90613442565b60405180910390fd5b805181602001fd5b63150b7a0260e01b7bffffffffffffffffffffffffffffffffffffffffffffffffffffffff1916817bffffffffffffffffffffffffffffffffffffffffffffffffffffffff191614915050611b44565b600190505b949350505050565b606060405180602001604052806000815250905090565b6060611b6e82610d16565b6000611b78611b4c565b90506000815111611b985760405180602001604052806000815250611bc3565b80611ba284611e30565b604051602001611bb392919061349e565b6040516020818303038152906040525b915050919050565b60007f80ac58cd000000000000000000000000000000000000000000000000000000007bffffffffffffffffffffffffffffffffffffffffffffffffffffffff1916827bffffffffffffffffffffffffffffffffffffffffffffffffffffffff19161480611c9657507f5b5e139f000000000000000000000000000000000000000000000000000000007bffffffffffffffffffffffffffffffffffffffffffffffffffffffff1916827bffffffffffffffffffffffffffffffffffffffffffffffffffffffff1916145b80611ca65750611ca582611f08565b5b9050919050565b611cb984848484611f72565b6001811115611cfd576040517f08c379a0000000000000000000000000000000000000000000000000000000008152600401611cf490613781565b60405180910390fd5b6000829050600073ffffffffffffffffffffffffffffffffffffffff168573ffffffffffffffffffffffffffffffffffffffff161415611d4557611d4081611f78565b611d84565b8373ffffffffffffffffffffffffffffffffffffffff168573ffffffffffffffffffffffffffffffffffffffff1614611d8357611d828582611fc1565b5b5b600073ffffffffffffffffffffffffffffffffffffffff168473ffffffffffffffffffffffffffffffffffffffff161415611dc757611dc28161212e565b611e06565b8473ffffffffffffffffffffffffffffffffffffffff168473ffffffffffffffffffffffffffffffffffffffff1614611e0557611e0484826121ff565b5b5b5050505050565b6000808273ffffffffffffffffffffffffffffffffffffffff163b119050919050565b606060006001611e3f8461227e565b01905060008167ffffffffffffffff811115611e5e57611e5d612977565b5b6040519080825280601f01601f191660200182016040528015611e905781602001600182028036833780820191505090505b509050600082602001820190505b600115611efd578080600190039150507f3031323334353637383961626364656600000000000000000000000000000000600a86061a8153600a8581611ee757611ee66137a1565b5b0494506000851415611ef857611efd565b611e9e565b819350505050919050565b60007f01ffc9a7000000000000000000000000000000000000000000000000000000007bffffffffffffffffffffffffffffffffffffffffffffffffffffffff1916827bffffffffffffffffffffffffffffffffffffffffffffffffffffffff1916149050919050565b50505050565b600980549050600a600083815260200190815260200160002081905550600981908060018154018082558091505060019003906000526020600020016000909190919091505550565b60006001611fce84610932565b611fd891906137d0565b90506000600860008481526020019081526020016000205490508181146120bd576000600760008673ffffffffffffffffffffffffffffffffffffffff1673ffffffffffffffffffffffffffffffffffffffff168152602001908152602001600020600084815260200190815260200160002054905080600760008773ffffffffffffffffffffffffffffffffffffffff1673ffffffffffffffffffffffffffffffffffffffff168152602001908152602001600020600084815260200190815260200160002081905550816008600083815260200190815260200160002081905550505b6008600084815260200190815260200160002060009055600760008573ffffffffffffffffffffffffffffffffffffffff1673ffffffffffffffffffffffffffffffffffffffff16815260200190815260200160002060008381526020019081526020016000206000905550505050565b6000600160098054905061214291906137d0565b90506000600a600084815260200190815260200160002054905060006009838154811061217257612171612de7565b5b90600052602060002001549050806009838154811061219457612193612de7565b5b906000526020600020018190555081600a600083815260200190815260200160002081905550600a60008581526020019081526020016000206000905560098054806121e3576121e2613804565b5b6001900381819060005260206000200160009055905550505050565b600061220a83610932565b905081600760008573ffffffffffffffffffffffffffffffffffffffff1673ffffffffffffffffffffffffffffffffffffffff168152602001908152602001600020600083815260200190815260200160002081905550806008600084815260200190815260200160002081905550505050565b600080600090507a184f03e93ff9f4daa797ed6e38ed64bf6a1f01000000000000000083106122dc577a184f03e93ff9f4daa797ed6e38ed64bf6a1f01000000000000000083816122d2576122d16137a1565b5b0492506040810190505b6d04ee2d6d415b85acef81000000008310612319576d04ee2d6d415b85acef8100000000838161230f5761230e6137a1565b5b0492506020810190505b662386f26fc10000831061234857662386f26fc10000838161233e5761233d6137a1565b5b0492506010810190505b6305f5e1008310612371576305f5e1008381612367576123666137a1565b5b0492506008810190505b612710831061239657612710838161238c5761238b6137a1565b5b0492506004810190505b606483106123b957606483816123af576123ae6137a1565b5b0492506002810190505b600a83106123c8576001810190505b80915050919050565b8280546123dd90612c91565b90600052602060002090601f0160209004810192826123ff5760008555612446565b82601f1061241857805160ff1916838001178555612446565b82800160010185558215612446579182015b8281111561244557825182559160200191906001019061242a565b5b5090506124539190612457565b5090565b5b80821115612470576000816000905550600101612458565b5090565b6000604051905090565b600080fd5b600080fd5b60007fffffffff0000000000000000000000000000000000000000000000000000000082169050919050565b6124bd81612488565b81146124c857600080fd5b50565b6000813590506124da816124b4565b92915050565b6000602082840312156124f6576124f561247e565b5b6000612504848285016124cb565b91505092915050565b60008115159050919050565b6125228161250d565b82525050565b600060208201905061253d6000830184612519565b92915050565b600081519050919050565b600082825260208201905092915050565b60005b8381101561257d578082015181840152602081019050612562565b8381111561258c576000848401525b50505050565b6000601f19601f8301169050919050565b60006125ae82612543565b6125b8818561254e565b93506125c881856020860161255f565b6125d181612592565b840191505092915050565b600060208201905081810360008301526125f681846125a3565b905092915050565b6000819050919050565b612611816125fe565b811461261c57600080fd5b50565b60008135905061262e81612608565b92915050565b60006020828403121561264a5761264961247e565b5b60006126588482850161261f565b91505092915050565b600073ffffffffffffffffffffffffffffffffffffffff82169050919050565b600061268c82612661565b9050919050565b61269c81612681565b82525050565b60006020820190506126b76000830184612693565b92915050565b6126c681612681565b81146126d157600080fd5b50565b6000813590506126e3816126bd565b92915050565b60008060408385031215612700576126ff61247e565b5b600061270e858286016126d4565b925050602061271f8582860161261f565b9150509250929050565b612732816125fe565b82525050565b600060208201905061274d6000830184612729565b92915050565b6000602082840312156127695761276861247e565b5b6000612777848285016126d4565b91505092915050565b600081519050919050565b600082825260208201905092915050565b6000819050602082019050919050565b600082825260208201905092915050565b60006127c882612543565b6127d281856127ac565b93506127e281856020860161255f565b6127eb81612592565b840191505092915050565b600061280283836127bd565b905092915050565b6000602082019050919050565b600061282282612780565b61282c818561278b565b93508360208202850161283e8561279c565b8060005b8581101561287a578484038952815161285b85826127f6565b94506128668361280a565b925060208a01995050600181019050612842565b50829750879550505050505092915050565b600060208201905081810360008301526128a68184612817565b905092915050565b6000806000606084860312156128c7576128c661247e565b5b60006128d5868287016126d4565b93505060206128e6868287016126d4565b92505060406128f78682870161261f565b9150509250925092565b61290a8161250d565b811461291557600080fd5b50565b60008135905061292781612901565b92915050565b600080604083850312156129445761294361247e565b5b6000612952858286016126d4565b925050602061296385828601612918565b9150509250929050565b600080fd5b600080fd5b7f4e487b7100000000000000000000000000000000000000000000000000000000600052604160045260246000fd5b6129af82612592565b810181811067ffffffffffffffff821117156129ce576129cd612977565b5b80604052505050565b60006129e1612474565b90506129ed82826129a6565b919050565b600067ffffffffffffffff821115612a0d57612a0c612977565b5b612a1682612592565b9050602081019050919050565b82818337600083830152505050565b6000612a45612a40846129f2565b6129d7565b905082815260208101848484011115612a6157612a60612972565b5b612a6c848285612a23565b509392505050565b600082601f830112612a8957612a8861296d565b5b8135612a99848260208601612a32565b91505092915050565b60008060008060808587031215612abc57612abb61247e565b5b6000612aca878288016126d4565b9450506020612adb878288016126d4565b9350506040612aec8782880161261f565b925050606085013567ffffffffffffffff811115612b0d57612b0c612483565b5b612b1987828801612a74565b91505092959194509250565b60008060408385031215612b3c57612b3b61247e565b5b6000612b4a858286016126d4565b9250506020612b5b858286016126d4565b9150509250929050565b600067ffffffffffffffff821115612b8057612b7f612977565b5b612b8982612592565b9050602081019050919050565b6000612ba9612ba484612b65565b6129d7565b905082815260208101848484011115612bc557612bc4612972565b5b612bd0848285612a23565b509392505050565b600082601f830112612bed57612bec61296d565b5b8135612bfd848260208601612b96565b91505092915050565b60008060408385031215612c1d57612c1c61247e565b5b6000612c2b858286016126d4565b925050602083013567ffffffffffffffff811115612c4c57612c4b612483565b5b612c5885828601612bd8565b9150509250929050565b7f4e487b7100000000000000000000000000000000000000000000000000000000600052602260045260246000fd5b60006002820490506001821680612ca957607f821691505b60208210811415612cbd57612cbc612c62565b5b50919050565b7f4552433732313a20617070726f76616c20746f2063757272656e74206f776e6560008201527f7200000000000000000000000000000000000000000000000000000000000000602082015250565b6000612d1f60218361254e565b9150612d2a82612cc3565b604082019050919050565b60006020820190508181036000830152612d4e81612d12565b9050919050565b7f4552433732313a20617070726f76652063616c6c6572206973206e6f7420746f60008201527f6b656e206f776e6572206f7220617070726f76656420666f7220616c6c000000602082015250565b6000612db1603d8361254e565b9150612dbc82612d55565b604082019050919050565b60006020820190508181036000830152612de081612da4565b9050919050565b7f4e487b7100000000000000000000000000000000000000000000000000000000600052603260045260246000fd5b7f4e487b7100000000000000000000000000000000000000000000000000000000600052601160045260246000fd5b6000612e50826125fe565b91507fffffffffffffffffffffffffffffffffffffffffffffffffffffffffffffffff821415612e8357612e82612e16565b5b600182019050919050565b7f4552433732313a2063616c6c6572206973206e6f7420746f6b656e206f776e6560008201527f72206f7220617070726f76656400000000000000000000000000000000000000602082015250565b6000612eea602d8361254e565b9150612ef582612e8e565b604082019050919050565b60006020820190508181036000830152612f1981612edd565b9050919050565b7f455243373231456e756d657261626c653a206f776e657220696e646578206f7560008201527f74206f6620626f756e6473000000000000000000000000000000000000000000602082015250565b6000612f7c602b8361254e565b9150612f8782612f20565b604082019050919050565b60006020820190508181036000830152612fab81612f6f565b9050919050565b7f455243373231456e756d657261626c653a20676c6f62616c20696e646578206f60008201527f7574206f6620626f756e64730000000000000000000000000000000000000000602082015250565b600061300e602c8361254e565b915061301982612fb2565b604082019050919050565b6000602082019050818103600083015261303d81613001565b9050919050565b7f4552433732313a20696e76616c696420746f6b656e2049440000000000000000600082015250565b600061307a60188361254e565b915061308582613044565b602082019050919050565b600060208201905081810360008301526130a98161306d565b9050919050565b7f4552433732313a2061646472657373207a65726f206973206e6f74206120766160008201527f6c6964206f776e65720000000000000000000000000000000000000000000000602082015250565b600061310c60298361254e565b9150613117826130b0565b604082019050919050565b6000602082019050818103600083015261313b816130ff565b9050919050565b7f4f776e61626c653a206e6577206f776e657220697320746865207a65726f206160008201527f6464726573730000000000000000000000000000000000000000000000000000602082015250565b600061319e60268361254e565b91506131a982613142565b604082019050919050565b600060208201905081810360008301526131cd81613191565b9050919050565b7f4552433732313a207472616e736665722066726f6d20696e636f72726563742060008201527f6f776e6572000000000000000000000000000000000000000000000000000000602082015250565b600061323060258361254e565b915061323b826131d4565b604082019050919050565b6000602082019050818103600083015261325f81613223565b9050919050565b7f4552433732313a207472616e7366657220746f20746865207a65726f2061646460008201527f7265737300000000000000000000000000000000000000000000000000000000602082015250565b60006132c260248361254e565b91506132cd82613266565b604082019050919050565b600060208201905081810360008301526132f1816132b5565b9050919050565b7f4f776e61626c653a2063616c6c6572206973206e6f7420746865206f776e6572600082015250565b600061332e60208361254e565b9150613339826132f8565b602082019050919050565b6000602082019050818103600083015261335d81613321565b9050919050565b7f4552433732313a20617070726f766520746f2063616c6c657200000000000000600082015250565b600061339a60198361254e565b91506133a582613364565b602082019050919050565b600060208201905081810360008301526133c98161338d565b9050919050565b7f4552433732313a207472616e7366657220746f206e6f6e20455243373231526560008201527f63656976657220696d706c656d656e7465720000000000000000000000000000602082015250565b600061342c60328361254e565b9150613437826133d0565b604082019050919050565b6000602082019050818103600083015261345b8161341f565b9050919050565b600081905092915050565b600061347882612543565b6134828185613462565b935061349281856020860161255f565b80840191505092915050565b60006134aa828561346d565b91506134b6828461346d565b91508190509392505050565b7f4552433732313a206d696e7420746f20746865207a65726f2061646472657373600082015250565b60006134f860208361254e565b9150613503826134c2565b602082019050919050565b60006020820190508181036000830152613527816134eb565b9050919050565b7f4552433732313a20746f6b656e20616c7265616479206d696e74656400000000600082015250565b6000613564601c8361254e565b915061356f8261352e565b602082019050919050565b6000602082019050818103600083015261359381613557565b9050919050565b7f45524337323155524953746f726167653a2055524920736574206f66206e6f6e60008201527f6578697374656e7420746f6b656e000000000000000000000000000000000000602082015250565b60006135f6602e8361254e565b91506136018261359a565b604082019050919050565b60006020820190508181036000830152613625816135e9565b9050919050565b600081519050919050565b600082825260208201905092915050565b60006136538261362c565b61365d8185613637565b935061366d81856020860161255f565b61367681612592565b840191505092915050565b60006080820190506136966000830187612693565b6136a36020830186612693565b6136b06040830185612729565b81810360608301526136c28184613648565b905095945050505050565b6000815190506136dc816124b4565b92915050565b6000602082840312156136f8576136f761247e565b5b6000613706848285016136cd565b91505092915050565b7f455243373231456e756d657261626c653a20636f6e736563757469766520747260008201527f616e7366657273206e6f7420737570706f727465640000000000000000000000602082015250565b600061376b60358361254e565b91506137768261370f565b604082019050919050565b6000602082019050818103600083015261379a8161375e565b9050919050565b7f4e487b7100000000000000000000000000000000000000000000000000000000600052601260045260246000fd5b60006137db826125fe565b91506137e6836125fe565b9250828210156137f9576137f8612e16565b5b828203905092915050565b7f4e487b7100000000000000000000000000000000000000000000000000000000600052603160045260246000fdfea2646970667358221220f64f54a6b94333e4f626b7234c2c1b1f083433f0043a79f9c3fe52d2c7ecefef64736f6c63430008090033",
  "linkReferences": {},
  "deployedLinkReferences": {}
}