{
  "_format": "hh-sol-artifact-1",
  "contractName": "NhouseNFT",
  "sourceName": "contracts/NhouseNFT.sol",
  "abi": [
    {
      "inputs": [],
      "stateMutability": "nonpayable",
      "type": "constructor"
    },
    {
      "anonymous": false,
      "inputs": [
        {
          "indexed": true,
          "internalType": "address",
          "name": "owner",
          "type": "address"
        },
        {
          "indexed": true,
          "internalType": "address",
          "name": "approved",
          "type": "address"
        },
        {
          "indexed": true,
          "internalType": "uint256",
          "name": "tokenId",
          "type": "uint256"
        }
      ],
      "name": "Approval",
      "type": "event"
    },
    {
      "anonymous": false,
      "inputs": [
        {
          "indexed": true,
          "internalType": "address",
          "name": "owner",
          "type": "address"
        },
        {
          "indexed": true,
          "internalType": "address",
          "name": "operator",
          "type": "address"
        },
        {
          "indexed": false,
          "internalType": "bool",
          "name": "approved",
          "type": "bool"
        }
      ],
      "name": "ApprovalForAll",
      "type": "event"
    },
    {
      "anonymous": false,
      "inputs": [
        {
          "indexed": false,
          "internalType": "uint256",
          "name": "_fromTokenId",
          "type": "uint256"
        },
        {
          "indexed": false,
          "internalType": "uint256",
          "name": "_toTokenId",
          "type": "uint256"
        }
      ],
      "name": "BatchMetadataUpdate",
      "type": "event"
    },
    {
      "anonymous": false,
      "inputs": [
        {
          "indexed": false,
          "internalType": "uint256",
          "name": "_tokenId",
          "type": "uint256"
        }
      ],
      "name": "MetadataUpdate",
      "type": "event"
    },
    {
      "anonymous": false,
      "inputs": [
        {
          "indexed": true,
          "internalType": "address",
          "name": "previousOwner",
          "type": "address"
        },
        {
          "indexed": true,
          "internalType": "address",
          "name": "newOwner",
          "type": "address"
        }
      ],
      "name": "OwnershipTransferred",
      "type": "event"
    },
    {
      "anonymous": false,
      "inputs": [
        {
          "indexed": true,
          "internalType": "address",
          "name": "from",
          "type": "address"
        },
        {
          "indexed": true,
          "internalType": "address",
          "name": "to",
          "type": "address"
        },
        {
          "indexed": true,
          "internalType": "uint256",
          "name": "tokenId",
          "type": "uint256"
        }
      ],
      "name": "Transfer",
      "type": "event"
    },
    {
      "inputs": [
        {
          "internalType": "address",
          "name": "to",
          "type": "address"
        },
        {
          "internalType": "uint256",
          "name": "tokenId",
          "type": "uint256"
        }
      ],
      "name": "approve",
      "outputs": [],
      "stateMutability": "nonpayable",
      "type": "function"
    },
    {
      "inputs": [
        {
          "internalType": "address",
          "name": "owner",
          "type": "address"
        }
      ],
      "name": "balanceOf",
      "outputs": [
        {
          "internalType": "uint256",
          "name": "",
          "type": "uint256"
        }
      ],
      "stateMutability": "view",
      "type": "function"
    },
    {
      "inputs": [
        {
          "internalType": "uint256",
          "name": "tokenId",
          "type": "uint256"
        }
      ],
      "name": "getApproved",
      "outputs": [
        {
          "internalType": "address",
          "name": "",
          "type": "address"
        }
      ],
      "stateMutability": "view",
      "type": "function"
    },
    {
      "inputs": [
        {
          "internalType": "address",
          "name": "address_",
          "type": "address"
        }
      ],
      "name": "getTokenUriFromAddress",
      "outputs": [
        {
          "components": [
            {
              "internalType": "uint256",
              "name": "tokenId",
              "type": "uint256"
            },
            {
              "internalType": "string",
              "name": "tokenUri",
              "type": "string"
            }
          ],
          "internalType": "struct NhouseNFT.TokenInfo[]",
          "name": "",
          "type": "tuple[]"
        }
      ],
      "stateMutability": "view",
      "type": "function"
    },
    {
      "inputs": [
        {
          "internalType": "address",
          "name": "owner",
          "type": "address"
        },
        {
          "internalType": "address",
          "name": "operator",
          "type": "address"
        }
      ],
      "name": "isApprovedForAll",
      "outputs": [
        {
          "internalType": "bool",
          "name": "",
          "type": "bool"
        }
      ],
      "stateMutability": "view",
      "type": "function"
    },
    {
      "inputs": [
        {
          "internalType": "address",
          "name": "recipient",
          "type": "address"
        },
        {
          "internalType": "string",
          "name": "tokenURI",
          "type": "string"
        }
      ],
      "name": "mintNFT",
      "outputs": [
        {
          "internalType": "uint256",
          "name": "",
          "type": "uint256"
        }
      ],
      "stateMutability": "nonpayable",
      "type": "function"
    },
    {
      "inputs": [],
      "name": "name",
      "outputs": [
        {
          "internalType": "string",
          "name": "",
          "type": "string"
        }
      ],
      "stateMutability": "view",
      "type": "function"
    },
    {
      "inputs": [],
      "name": "owner",
      "outputs": [
        {
          "internalType": "address",
          "name": "",
          "type": "address"
        }
      ],
      "stateMutability": "view",
      "type": "function"
    },
    {
      "inputs": [
        {
          "internalType": "uint256",
          "name": "tokenId",
          "type": "uint256"
        }
      ],
      "name": "ownerOf",
      "outputs": [
        {
          "internalType": "address",
          "name": "",
          "type": "address"
        }
      ],
      "stateMutability": "view",
      "type": "function"
    },
    {
      "inputs": [],
      "name": "renounceOwnership",
      "outputs": [],
      "stateMutability": "nonpayable",
      "type": "function"
    },
    {
      "inputs": [
        {
          "internalType": "address",
          "name": "from",
          "type": "address"
        },
        {
          "internalType": "address",
          "name": "to",
          "type": "address"
        },
        {
          "internalType": "uint256",
          "name": "tokenId",
          "type": "uint256"
        }
      ],
      "name": "safeTransferFrom",
      "outputs": [],
      "stateMutability": "nonpayable",
      "type": "function"
    },
    {
      "inputs": [
        {
          "internalType": "address",
          "name": "from",
          "type": "address"
        },
        {
          "internalType": "address",
          "name": "to",
          "type": "address"
        },
        {
          "internalType": "uint256",
          "name": "tokenId",
          "type": "uint256"
        },
        {
          "internalType": "bytes",
          "name": "data",
          "type": "bytes"
        }
      ],
      "name": "safeTransferFrom",
      "outputs": [],
      "stateMutability": "nonpayable",
      "type": "function"
    },
    {
      "inputs": [
        {
          "internalType": "address",
          "name": "operator",
          "type": "address"
        },
        {
          "internalType": "bool",
          "name": "approved",
          "type": "bool"
        }
      ],
      "name": "setApprovalForAll",
      "outputs": [],
      "stateMutability": "nonpayable",
      "type": "function"
    },
    {
      "inputs": [
        {
          "internalType": "bytes4",
          "name": "interfaceId",
          "type": "bytes4"
        }
      ],
      "name": "supportsInterface",
      "outputs": [
        {
          "internalType": "bool",
          "name": "",
          "type": "bool"
        }
      ],
      "stateMutability": "view",
      "type": "function"
    },
    {
      "inputs": [],
      "name": "symbol",
      "outputs": [
        {
          "internalType": "string",
          "name": "",
          "type": "string"
        }
      ],
      "stateMutability": "view",
      "type": "function"
    },
    {
      "inputs": [
        {
          "internalType": "uint256",
          "name": "index",
          "type": "uint256"
        }
      ],
      "name": "tokenByIndex",
      "outputs": [
        {
          "internalType": "uint256",
          "name": "",
          "type": "uint256"
        }
      ],
      "stateMutability": "view",
      "type": "function"
    },
    {
      "inputs": [
        {
          "internalType": "address",
          "name": "owner",
          "type": "address"
        },
        {
          "internalType": "uint256",
          "name": "index",
          "type": "uint256"
        }
      ],
      "name": "tokenOfOwnerByIndex",
      "outputs": [
        {
          "internalType": "uint256",
          "name": "",
          "type": "uint256"
        }
      ],
      "stateMutability": "view",
      "type": "function"
    },
    {
      "inputs": [
        {
          "internalType": "uint256",
          "name": "tokenId",
          "type": "uint256"
        }
      ],
      "name": "tokenURI",
      "outputs": [
        {
          "internalType": "string",
          "name": "",
          "type": "string"
        }
      ],
      "stateMutability": "view",
      "type": "function"
    },
    {
      "inputs": [],
      "name": "totalSupply",
      "outputs": [
        {
          "internalType": "uint256",
          "name": "",
          "type": "uint256"
        }
      ],
      "stateMutability": "view",
      "type": "function"
    },
    {
      "inputs": [
        {
          "internalType": "address",
          "name": "from",
          "type": "address"
        },
        {
          "internalType": "address",
          "name": "to",
          "type": "address"
        },
        {
          "internalType": "uint256",
          "name": "tokenId",
          "type": "uint256"
        }
      ],
      "name": "transferFrom",
      "outputs": [],
      "stateMutability": "nonpayable",
      "type": "function"
    },
    {
      "inputs": [
        {
          "internalType": "address",
          "name": "newOwner",
          "type": "address"
        }
      ],
      "name": "transferOwnership",
      "outputs": [],
      "stateMutability": "nonpayable",
      "type": "function"
    }
  ],
  "bytecode": "0x60806040523480156200001157600080fd5b506040518060400160405280600981526020017f4e686f7573654e465400000000000000000000000000000000000000000000008152506040518060400160405280600481526020017f4e4e465400000000000000000000000000000000000000000000000000000000815250816000908051906020019062000096929190620001a6565b508060019080519060200190620000af929190620001a6565b505050620000d2620000c6620000d860201b60201c565b620000e060201b60201c565b620002bb565b600033905090565b6000600b60009054906101000a900473ffffffffffffffffffffffffffffffffffffffff16905081600b60006101000a81548173ffffffffffffffffffffffffffffffffffffffff021916908373ffffffffffffffffffffffffffffffffffffffff1602179055508173ffffffffffffffffffffffffffffffffffffffff168173ffffffffffffffffffffffffffffffffffffffff167f8be0079c531659141344cd1fd0a4f28419497f9722a3daafe3b4186f6b6457e060405160405180910390a35050565b828054620001b49062000285565b90600052602060002090601f016020900481019282620001d8576000855562000224565b82601f10620001f357805160ff191683800117855562000224565b8280016001018555821562000224579182015b828111156200022357825182559160200191906001019062000206565b5b50905062000233919062000237565b5090565b5b808211156200025257600081600090555060010162000238565b5090565b7f4e487b7100000000000000000000000000000000000000000000000000000000600052602260045260246000fd5b600060028204905060018216806200029e57607f821691505b60208210811415620002b557620002b462000256565b5b50919050565b6138e980620002cb6000396000f3fe608060405234801561001057600080fd5b50600436106101375760003560e01c80636352211e116100b8578063a22cb4651161007c578063a22cb46514610362578063b88d4fde1461037e578063c87b56dd1461039a578063e985e9c5146103ca578063eacabe14146103fa578063f2fde38b1461042a57610137565b80636352211e146102bc57806370a08231146102ec578063715018a61461031c5780638da5cb5b1461032657806395d89b411461034457610137565b80631c701361116100ff5780631c701361146101f457806323b872dd146102245780632f745c591461024057806342842e0e146102705780634f6ccce71461028c57610137565b806301ffc9a71461013c57806306fdde031461016c578063081812fc1461018a578063095ea7b3146101ba57806318160ddd146101d6575b600080fd5b61015660048036038101906101519190612514565b610446565b604051610163919061255c565b60405180910390f35b610174610458565b6040516101819190612610565b60405180910390f35b6101a4600480360381019061019f9190612668565b6104ea565b6040516101b191906126d6565b60405180910390f35b6101d460048036038101906101cf919061271d565b610530565b005b6101de610648565b6040516101eb919061276c565b60405180910390f35b61020e60048036038101906102099190612787565b610655565b60405161021b919061290c565b60405180910390f35b61023e6004803603810190610239919061292e565b61072f565b005b61025a6004803603810190610255919061271d565b61078f565b604051610267919061276c565b60405180910390f35b61028a6004803603810190610285919061292e565b610834565b005b6102a660048036038101906102a19190612668565b610854565b6040516102b3919061276c565b60405180910390f35b6102d660048036038101906102d19190612668565b6108c5565b6040516102e391906126d6565b60405180910390f35b61030660048036038101906103019190612787565b61094c565b604051610313919061276c565b60405180910390f35b610324610a04565b005b61032e610a18565b60405161033b91906126d6565b60405180910390f35b61034c610a42565b6040516103599190612610565b60405180910390f35b61037c600480360381019061037791906129ad565b610ad4565b005b61039860048036038101906103939190612b22565b610aea565b005b6103b460048036038101906103af9190612668565b610b4c565b6040516103c19190612610565b60405180910390f35b6103e460048036038101906103df9190612ba5565b610b5e565b6040516103f1919061255c565b60405180910390f35b610414600480360381019061040f9190612c86565b610bf2565b604051610421919061276c565b60405180910390f35b610444600480360381019061043f9190612787565b610c32565b005b600061045182610cb6565b9050919050565b60606000805461046790612d11565b80601f016020809104026020016040519081016040528092919081815260200182805461049390612d11565b80156104e05780601f106104b5576101008083540402835291602001916104e0565b820191906000526020600020905b8154815290600101906020018083116104c357829003601f168201915b5050505050905090565b60006104f582610d30565b6004600083815260200190815260200160002060009054906101000a900473ffffffffffffffffffffffffffffffffffffffff169050919050565b600061053b826108c5565b90508073ffffffffffffffffffffffffffffffffffffffff168373ffffffffffffffffffffffffffffffffffffffff1614156105ac576040517f08c379a00000000000000000000000000000000000000000000000000000000081526004016105a390612db5565b60405180910390fd5b8073ffffffffffffffffffffffffffffffffffffffff166105cb610d7b565b73ffffffffffffffffffffffffffffffffffffffff1614806105fa57506105f9816105f4610d7b565b610b5e565b5b610639576040517f08c379a000000000000000000000000000000000000000000000000000000000815260040161063090612e47565b60405180910390fd5b6106438383610d83565b505050565b6000600980549050905090565b606060006106628361094c565b905060008167ffffffffffffffff8111156106805761067f6129f7565b5b6040519080825280602002602001820160405280156106b957816020015b6106a66123eb565b81526020019060019003908161069e5790505b50905060005b828110156107245760006106d3868361078f565b905060405180604001604052808281526020016106ef83610b4c565b81525083838151811061070557610704612e67565b5b602002602001018190525050808061071c90612ec5565b9150506106bf565b508092505050919050565b61074061073a610d7b565b82610e3c565b61077f576040517f08c379a000000000000000000000000000000000000000000000000000000000815260040161077690612f80565b60405180910390fd5b61078a838383610ed1565b505050565b600061079a8361094c565b82106107db576040517f08c379a00000000000000000000000000000000000000000000000000000000081526004016107d290613012565b60405180910390fd5b600760008473ffffffffffffffffffffffffffffffffffffffff1673ffffffffffffffffffffffffffffffffffffffff168152602001908152602001600020600083815260200190815260200160002054905092915050565b61084f83838360405180602001604052806000815250610aea565b505050565b600061085e610648565b821061089f576040517f08c379a0000000000000000000000000000000000000000000000000000000008152600401610896906130a4565b60405180910390fd5b600982815481106108b3576108b2612e67565b5b90600052602060002001549050919050565b6000806108d1836111cb565b9050600073ffffffffffffffffffffffffffffffffffffffff168173ffffffffffffffffffffffffffffffffffffffff161415610943576040517f08c379a000000000000000000000000000000000000000000000000000000000815260040161093a90613110565b60405180910390fd5b80915050919050565b60008073ffffffffffffffffffffffffffffffffffffffff168273ffffffffffffffffffffffffffffffffffffffff1614156109bd576040517f08c379a00000000000000000000000000000000000000000000000000000000081526004016109b4906131a2565b60405180910390fd5b600360008373ffffffffffffffffffffffffffffffffffffffff1673ffffffffffffffffffffffffffffffffffffffff168152602001908152602001600020549050919050565b610a0c611208565b610a166000611286565b565b6000600b60009054906101000a900473ffffffffffffffffffffffffffffffffffffffff16905090565b606060018054610a5190612d11565b80601f0160208091040260200160405190810160405280929190818152602001828054610a7d90612d11565b8015610aca5780601f10610a9f57610100808354040283529160200191610aca565b820191906000526020600020905b815481529060010190602001808311610aad57829003601f168201915b5050505050905090565b610ae6610adf610d7b565b838361134c565b5050565b610afb610af5610d7b565b83610e3c565b610b3a576040517f08c379a0000000000000000000000000000000000000000000000000000000008152600401610b3190612f80565b60405180910390fd5b610b46848484846114b9565b50505050565b6060610b5782611515565b9050919050565b6000600560008473ffffffffffffffffffffffffffffffffffffffff1673ffffffffffffffffffffffffffffffffffffffff16815260200190815260200160002060008373ffffffffffffffffffffffffffffffffffffffff1673ffffffffffffffffffffffffffffffffffffffff16815260200190815260200160002060009054906101000a900460ff16905092915050565b6000610bfc611208565b610c06600c611628565b6000610c12600c61163e565b9050610c1e848261164c565b610c28818461186a565b8091505092915050565b610c3a611208565b600073ffffffffffffffffffffffffffffffffffffffff168173ffffffffffffffffffffffffffffffffffffffff161415610caa576040517f08c379a0000000000000000000000000000000000000000000000000000000008152600401610ca190613234565b60405180910390fd5b610cb381611286565b50565b60007f780e9d63000000000000000000000000000000000000000000000000000000007bffffffffffffffffffffffffffffffffffffffffffffffffffffffff1916827bffffffffffffffffffffffffffffffffffffffffffffffffffffffff19161480610d295750610d2882611915565b5b9050919050565b610d3981611976565b610d78576040517f08c379a0000000000000000000000000000000000000000000000000000000008152600401610d6f90613110565b60405180910390fd5b50565b600033905090565b816004600083815260200190815260200160002060006101000a81548173ffffffffffffffffffffffffffffffffffffffff021916908373ffffffffffffffffffffffffffffffffffffffff160217905550808273ffffffffffffffffffffffffffffffffffffffff16610df6836108c5565b73ffffffffffffffffffffffffffffffffffffffff167f8c5be1e5ebec7d5bd14f71427d1e84f3dd0314c0f7b2291e5b200ac8c7c3b92560405160405180910390a45050565b600080610e48836108c5565b90508073ffffffffffffffffffffffffffffffffffffffff168473ffffffffffffffffffffffffffffffffffffffff161480610e8a5750610e898185610b5e565b5b80610ec857508373ffffffffffffffffffffffffffffffffffffffff16610eb0846104ea565b73ffffffffffffffffffffffffffffffffffffffff16145b91505092915050565b8273ffffffffffffffffffffffffffffffffffffffff16610ef1826108c5565b73ffffffffffffffffffffffffffffffffffffffff1614610f47576040517f08c379a0000000000000000000000000000000000000000000000000000000008152600401610f3e906132c6565b60405180910390fd5b600073ffffffffffffffffffffffffffffffffffffffff168273ffffffffffffffffffffffffffffffffffffffff161415610fb7576040517f08c379a0000000000000000000000000000000000000000000000000000000008152600401610fae90613358565b60405180910390fd5b610fc483838360016119b7565b8273ffffffffffffffffffffffffffffffffffffffff16610fe4826108c5565b73ffffffffffffffffffffffffffffffffffffffff161461103a576040517f08c379a0000000000000000000000000000000000000000000000000000000008152600401611031906132c6565b60405180910390fd5b6004600082815260200190815260200160002060006101000a81549073ffffffffffffffffffffffffffffffffffffffff02191690556001600360008573ffffffffffffffffffffffffffffffffffffffff1673ffffffffffffffffffffffffffffffffffffffff168152602001908152602001600020600082825403925050819055506001600360008473ffffffffffffffffffffffffffffffffffffffff1673ffffffffffffffffffffffffffffffffffffffff16815260200190815260200160002060008282540192505081905550816002600083815260200190815260200160002060006101000a81548173ffffffffffffffffffffffffffffffffffffffff021916908373ffffffffffffffffffffffffffffffffffffffff160217905550808273ffffffffffffffffffffffffffffffffffffffff168473ffffffffffffffffffffffffffffffffffffffff167fddf252ad1be2c89b69c2b068fc378daa952ba7f163c4a11628f55a4df523b3ef60405160405180910390a46111c683838360016119c9565b505050565b60006002600083815260200190815260200160002060009054906101000a900473ffffffffffffffffffffffffffffffffffffffff169050919050565b611210610d7b565b73ffffffffffffffffffffffffffffffffffffffff1661122e610a18565b73ffffffffffffffffffffffffffffffffffffffff1614611284576040517f08c379a000000000000000000000000000000000000000000000000000000000815260040161127b906133c4565b60405180910390fd5b565b6000600b60009054906101000a900473ffffffffffffffffffffffffffffffffffffffff16905081600b60006101000a81548173ffffffffffffffffffffffffffffffffffffffff021916908373ffffffffffffffffffffffffffffffffffffffff1602179055508173ffffffffffffffffffffffffffffffffffffffff168173ffffffffffffffffffffffffffffffffffffffff167f8be0079c531659141344cd1fd0a4f28419497f9722a3daafe3b4186f6b6457e060405160405180910390a35050565b8173ffffffffffffffffffffffffffffffffffffffff168373ffffffffffffffffffffffffffffffffffffffff1614156113bb576040517f08c379a00000000000000000000000000000000000000000000000000000000081526004016113b290613430565b60405180910390fd5b80600560008573ffffffffffffffffffffffffffffffffffffffff1673ffffffffffffffffffffffffffffffffffffffff16815260200190815260200160002060008473ffffffffffffffffffffffffffffffffffffffff1673ffffffffffffffffffffffffffffffffffffffff16815260200190815260200160002060006101000a81548160ff0219169083151502179055508173ffffffffffffffffffffffffffffffffffffffff168373ffffffffffffffffffffffffffffffffffffffff167f17307eab39ab6107e8899845ad3d59bd9653f200f220920489ca2b5937696c31836040516114ac919061255c565b60405180910390a3505050565b6114c4848484610ed1565b6114d0848484846119cf565b61150f576040517f08c379a0000000000000000000000000000000000000000000000000000000008152600401611506906134c2565b60405180910390fd5b50505050565b606061152082610d30565b600060066000848152602001908152602001600020805461154090612d11565b80601f016020809104026020016040519081016040528092919081815260200182805461156c90612d11565b80156115b95780601f1061158e576101008083540402835291602001916115b9565b820191906000526020600020905b81548152906001019060200180831161159c57829003601f168201915b5050505050905060006115ca611b66565b90506000815114156115e0578192505050611623565b6000825111156116155780826040516020016115fd92919061351e565b60405160208183030381529060405292505050611623565b61161e84611b7d565b925050505b919050565b6001816000016000828254019250508190555050565b600081600001549050919050565b600073ffffffffffffffffffffffffffffffffffffffff168273ffffffffffffffffffffffffffffffffffffffff1614156116bc576040517f08c379a00000000000000000000000000000000000000000000000000000000081526004016116b39061358e565b60405180910390fd5b6116c581611976565b15611705576040517f08c379a00000000000000000000000000000000000000000000000000000000081526004016116fc906135fa565b60405180910390fd5b6117136000838360016119b7565b61171c81611976565b1561175c576040517f08c379a0000000000000000000000000000000000000000000000000000000008152600401611753906135fa565b60405180910390fd5b6001600360008473ffffffffffffffffffffffffffffffffffffffff1673ffffffffffffffffffffffffffffffffffffffff16815260200190815260200160002060008282540192505081905550816002600083815260200190815260200160002060006101000a81548173ffffffffffffffffffffffffffffffffffffffff021916908373ffffffffffffffffffffffffffffffffffffffff160217905550808273ffffffffffffffffffffffffffffffffffffffff16600073ffffffffffffffffffffffffffffffffffffffff167fddf252ad1be2c89b69c2b068fc378daa952ba7f163c4a11628f55a4df523b3ef60405160405180910390a46118666000838360016119c9565b5050565b61187382611976565b6118b2576040517f08c379a00000000000000000000000000000000000000000000000000000000081526004016118a99061368c565b60405180910390fd5b806006600084815260200190815260200160002090805190602001906118d9929190612405565b507ff8e1a15aba9398e019f0b49df1a4fde98ee17ae345cb5f6b5e2c27f5033e8ce782604051611909919061276c565b60405180910390a15050565b6000634906490660e01b7bffffffffffffffffffffffffffffffffffffffffffffffffffffffff1916827bffffffffffffffffffffffffffffffffffffffffffffffffffffffff1916148061196f575061196e82611be5565b5b9050919050565b60008073ffffffffffffffffffffffffffffffffffffffff16611998836111cb565b73ffffffffffffffffffffffffffffffffffffffff1614159050919050565b6119c384848484611cc7565b50505050565b50505050565b60006119f08473ffffffffffffffffffffffffffffffffffffffff16611e27565b15611b59578373ffffffffffffffffffffffffffffffffffffffff1663150b7a02611a19610d7b565b8786866040518563ffffffff1660e01b8152600401611a3b9493929190613701565b602060405180830381600087803b158015611a5557600080fd5b505af1925050508015611a8657506040513d601f19601f82011682018060405250810190611a839190613762565b60015b611b09573d8060008114611ab6576040519150601f19603f3d011682016040523d82523d6000602084013e611abb565b606091505b50600081511415611b01576040517f08c379a0000000000000000000000000000000000000000000000000000000008152600401611af8906134c2565b60405180910390fd5b805181602001fd5b63150b7a0260e01b7bffffffffffffffffffffffffffffffffffffffffffffffffffffffff1916817bffffffffffffffffffffffffffffffffffffffffffffffffffffffff191614915050611b5e565b600190505b949350505050565b606060405180602001604052806000815250905090565b6060611b8882610d30565b6000611b92611b66565b90506000815111611bb25760405180602001604052806000815250611bdd565b80611bbc84611e4a565b604051602001611bcd92919061351e565b6040516020818303038152906040525b915050919050565b60007f80ac58cd000000000000000000000000000000000000000000000000000000007bffffffffffffffffffffffffffffffffffffffffffffffffffffffff1916827bffffffffffffffffffffffffffffffffffffffffffffffffffffffff19161480611cb057507f5b5e139f000000000000000000000000000000000000000000000000000000007bffffffffffffffffffffffffffffffffffffffffffffffffffffffff1916827bffffffffffffffffffffffffffffffffffffffffffffffffffffffff1916145b80611cc05750611cbf82611f22565b5b9050919050565b611cd384848484611f8c565b6001811115611d17576040517f08c379a0000000000000000000000000000000000000000000000000000000008152600401611d0e90613801565b60405180910390fd5b6000829050600073ffffffffffffffffffffffffffffffffffffffff168573ffffffffffffffffffffffffffffffffffffffff161415611d5f57611d5a81611f92565b611d9e565b8373ffffffffffffffffffffffffffffffffffffffff168573ffffffffffffffffffffffffffffffffffffffff1614611d9d57611d9c8582611fdb565b5b5b600073ffffffffffffffffffffffffffffffffffffffff168473ffffffffffffffffffffffffffffffffffffffff161415611de157611ddc81612148565b611e20565b8473ffffffffffffffffffffffffffffffffffffffff168473ffffffffffffffffffffffffffffffffffffffff1614611e1f57611e1e8482612219565b5b5b5050505050565b6000808273ffffffffffffffffffffffffffffffffffffffff163b119050919050565b606060006001611e5984612298565b01905060008167ffffffffffffffff811115611e7857611e776129f7565b5b6040519080825280601f01601f191660200182016040528015611eaa5781602001600182028036833780820191505090505b509050600082602001820190505b600115611f17578080600190039150507f3031323334353637383961626364656600000000000000000000000000000000600a86061a8153600a8581611f0157611f00613821565b5b0494506000851415611f1257611f17565b611eb8565b819350505050919050565b60007f01ffc9a7000000000000000000000000000000000000000000000000000000007bffffffffffffffffffffffffffffffffffffffffffffffffffffffff1916827bffffffffffffffffffffffffffffffffffffffffffffffffffffffff1916149050919050565b50505050565b600980549050600a600083815260200190815260200160002081905550600981908060018154018082558091505060019003906000526020600020016000909190919091505550565b60006001611fe88461094c565b611ff29190613850565b90506000600860008481526020019081526020016000205490508181146120d7576000600760008673ffffffffffffffffffffffffffffffffffffffff1673ffffffffffffffffffffffffffffffffffffffff168152602001908152602001600020600084815260200190815260200160002054905080600760008773ffffffffffffffffffffffffffffffffffffffff1673ffffffffffffffffffffffffffffffffffffffff168152602001908152602001600020600084815260200190815260200160002081905550816008600083815260200190815260200160002081905550505b6008600084815260200190815260200160002060009055600760008573ffffffffffffffffffffffffffffffffffffffff1673ffffffffffffffffffffffffffffffffffffffff16815260200190815260200160002060008381526020019081526020016000206000905550505050565b6000600160098054905061215c9190613850565b90506000600a600084815260200190815260200160002054905060006009838154811061218c5761218b612e67565b5b9060005260206000200154905080600983815481106121ae576121ad612e67565b5b906000526020600020018190555081600a600083815260200190815260200160002081905550600a60008581526020019081526020016000206000905560098054806121fd576121fc613884565b5b6001900381819060005260206000200160009055905550505050565b60006122248361094c565b905081600760008573ffffffffffffffffffffffffffffffffffffffff1673ffffffffffffffffffffffffffffffffffffffff168152602001908152602001600020600083815260200190815260200160002081905550806008600084815260200190815260200160002081905550505050565b600080600090507a184f03e93ff9f4daa797ed6e38ed64bf6a1f01000000000000000083106122f6577a184f03e93ff9f4daa797ed6e38ed64bf6a1f01000000000000000083816122ec576122eb613821565b5b0492506040810190505b6d04ee2d6d415b85acef81000000008310612333576d04ee2d6d415b85acef8100000000838161232957612328613821565b5b0492506020810190505b662386f26fc10000831061236257662386f26fc10000838161235857612357613821565b5b0492506010810190505b6305f5e100831061238b576305f5e100838161238157612380613821565b5b0492506008810190505b61271083106123b05761271083816123a6576123a5613821565b5b0492506004810190505b606483106123d357606483816123c9576123c8613821565b5b0492506002810190505b600a83106123e2576001810190505b80915050919050565b604051806040016040528060008152602001606081525090565b82805461241190612d11565b90600052602060002090601f016020900481019282612433576000855561247a565b82601f1061244c57805160ff191683800117855561247a565b8280016001018555821561247a579182015b8281111561247957825182559160200191906001019061245e565b5b509050612487919061248b565b5090565b5b808211156124a457600081600090555060010161248c565b5090565b6000604051905090565b600080fd5b600080fd5b60007fffffffff0000000000000000000000000000000000000000000000000000000082169050919050565b6124f1816124bc565b81146124fc57600080fd5b50565b60008135905061250e816124e8565b92915050565b60006020828403121561252a576125296124b2565b5b6000612538848285016124ff565b91505092915050565b60008115159050919050565b61255681612541565b82525050565b6000602082019050612571600083018461254d565b92915050565b600081519050919050565b600082825260208201905092915050565b60005b838110156125b1578082015181840152602081019050612596565b838111156125c0576000848401525b50505050565b6000601f19601f8301169050919050565b60006125e282612577565b6125ec8185612582565b93506125fc818560208601612593565b612605816125c6565b840191505092915050565b6000602082019050818103600083015261262a81846125d7565b905092915050565b6000819050919050565b61264581612632565b811461265057600080fd5b50565b6000813590506126628161263c565b92915050565b60006020828403121561267e5761267d6124b2565b5b600061268c84828501612653565b91505092915050565b600073ffffffffffffffffffffffffffffffffffffffff82169050919050565b60006126c082612695565b9050919050565b6126d0816126b5565b82525050565b60006020820190506126eb60008301846126c7565b92915050565b6126fa816126b5565b811461270557600080fd5b50565b600081359050612717816126f1565b92915050565b60008060408385031215612734576127336124b2565b5b600061274285828601612708565b925050602061275385828601612653565b9150509250929050565b61276681612632565b82525050565b6000602082019050612781600083018461275d565b92915050565b60006020828403121561279d5761279c6124b2565b5b60006127ab84828501612708565b91505092915050565b600081519050919050565b600082825260208201905092915050565b6000819050602082019050919050565b6127e981612632565b82525050565b600082825260208201905092915050565b600061280b82612577565b61281581856127ef565b9350612825818560208601612593565b61282e816125c6565b840191505092915050565b600060408301600083015161285160008601826127e0565b50602083015184820360208601526128698282612800565b9150508091505092915050565b60006128828383612839565b905092915050565b6000602082019050919050565b60006128a2826127b4565b6128ac81856127bf565b9350836020820285016128be856127d0565b8060005b858110156128fa57848403895281516128db8582612876565b94506128e68361288a565b925060208a019950506001810190506128c2565b50829750879550505050505092915050565b600060208201905081810360008301526129268184612897565b905092915050565b600080600060608486031215612947576129466124b2565b5b600061295586828701612708565b935050602061296686828701612708565b925050604061297786828701612653565b9150509250925092565b61298a81612541565b811461299557600080fd5b50565b6000813590506129a781612981565b92915050565b600080604083850312156129c4576129c36124b2565b5b60006129d285828601612708565b92505060206129e385828601612998565b9150509250929050565b600080fd5b600080fd5b7f4e487b7100000000000000000000000000000000000000000000000000000000600052604160045260246000fd5b612a2f826125c6565b810181811067ffffffffffffffff82111715612a4e57612a4d6129f7565b5b80604052505050565b6000612a616124a8565b9050612a6d8282612a26565b919050565b600067ffffffffffffffff821115612a8d57612a8c6129f7565b5b612a96826125c6565b9050602081019050919050565b82818337600083830152505050565b6000612ac5612ac084612a72565b612a57565b905082815260208101848484011115612ae157612ae06129f2565b5b612aec848285612aa3565b509392505050565b600082601f830112612b0957612b086129ed565b5b8135612b19848260208601612ab2565b91505092915050565b60008060008060808587031215612b3c57612b3b6124b2565b5b6000612b4a87828801612708565b9450506020612b5b87828801612708565b9350506040612b6c87828801612653565b925050606085013567ffffffffffffffff811115612b8d57612b8c6124b7565b5b612b9987828801612af4565b91505092959194509250565b60008060408385031215612bbc57612bbb6124b2565b5b6000612bca85828601612708565b9250506020612bdb85828601612708565b9150509250929050565b600067ffffffffffffffff821115612c0057612bff6129f7565b5b612c09826125c6565b9050602081019050919050565b6000612c29612c2484612be5565b612a57565b905082815260208101848484011115612c4557612c446129f2565b5b612c50848285612aa3565b509392505050565b600082601f830112612c6d57612c6c6129ed565b5b8135612c7d848260208601612c16565b91505092915050565b60008060408385031215612c9d57612c9c6124b2565b5b6000612cab85828601612708565b925050602083013567ffffffffffffffff811115612ccc57612ccb6124b7565b5b612cd885828601612c58565b9150509250929050565b7f4e487b7100000000000000000000000000000000000000000000000000000000600052602260045260246000fd5b60006002820490506001821680612d2957607f821691505b60208210811415612d3d57612d3c612ce2565b5b50919050565b7f4552433732313a20617070726f76616c20746f2063757272656e74206f776e6560008201527f7200000000000000000000000000000000000000000000000000000000000000602082015250565b6000612d9f602183612582565b9150612daa82612d43565b604082019050919050565b60006020820190508181036000830152612dce81612d92565b9050919050565b7f4552433732313a20617070726f76652063616c6c6572206973206e6f7420746f60008201527f6b656e206f776e6572206f7220617070726f76656420666f7220616c6c000000602082015250565b6000612e31603d83612582565b9150612e3c82612dd5565b604082019050919050565b60006020820190508181036000830152612e6081612e24565b9050919050565b7f4e487b7100000000000000000000000000000000000000000000000000000000600052603260045260246000fd5b7f4e487b7100000000000000000000000000000000000000000000000000000000600052601160045260246000fd5b6000612ed082612632565b91507fffffffffffffffffffffffffffffffffffffffffffffffffffffffffffffffff821415612f0357612f02612e96565b5b600182019050919050565b7f4552433732313a2063616c6c6572206973206e6f7420746f6b656e206f776e6560008201527f72206f7220617070726f76656400000000000000000000000000000000000000602082015250565b6000612f6a602d83612582565b9150612f7582612f0e565b604082019050919050565b60006020820190508181036000830152612f9981612f5d565b9050919050565b7f455243373231456e756d657261626c653a206f776e657220696e646578206f7560008201527f74206f6620626f756e6473000000000000000000000000000000000000000000602082015250565b6000612ffc602b83612582565b915061300782612fa0565b604082019050919050565b6000602082019050818103600083015261302b81612fef565b9050919050565b7f455243373231456e756d657261626c653a20676c6f62616c20696e646578206f60008201527f7574206f6620626f756e64730000000000000000000000000000000000000000602082015250565b600061308e602c83612582565b915061309982613032565b604082019050919050565b600060208201905081810360008301526130bd81613081565b9050919050565b7f4552433732313a20696e76616c696420746f6b656e2049440000000000000000600082015250565b60006130fa601883612582565b9150613105826130c4565b602082019050919050565b60006020820190508181036000830152613129816130ed565b9050919050565b7f4552433732313a2061646472657373207a65726f206973206e6f74206120766160008201527f6c6964206f776e65720000000000000000000000000000000000000000000000602082015250565b600061318c602983612582565b915061319782613130565b604082019050919050565b600060208201905081810360008301526131bb8161317f565b9050919050565b7f4f776e61626c653a206e6577206f776e657220697320746865207a65726f206160008201527f6464726573730000000000000000000000000000000000000000000000000000602082015250565b600061321e602683612582565b9150613229826131c2565b604082019050919050565b6000602082019050818103600083015261324d81613211565b9050919050565b7f4552433732313a207472616e736665722066726f6d20696e636f72726563742060008201527f6f776e6572000000000000000000000000000000000000000000000000000000602082015250565b60006132b0602583612582565b91506132bb82613254565b604082019050919050565b600060208201905081810360008301526132df816132a3565b9050919050565b7f4552433732313a207472616e7366657220746f20746865207a65726f2061646460008201527f7265737300000000000000000000000000000000000000000000000000000000602082015250565b6000613342602483612582565b915061334d826132e6565b604082019050919050565b6000602082019050818103600083015261337181613335565b9050919050565b7f4f776e61626c653a2063616c6c6572206973206e6f7420746865206f776e6572600082015250565b60006133ae602083612582565b91506133b982613378565b602082019050919050565b600060208201905081810360008301526133dd816133a1565b9050919050565b7f4552433732313a20617070726f766520746f2063616c6c657200000000000000600082015250565b600061341a601983612582565b9150613425826133e4565b602082019050919050565b600060208201905081810360008301526134498161340d565b9050919050565b7f4552433732313a207472616e7366657220746f206e6f6e20455243373231526560008201527f63656976657220696d706c656d656e7465720000000000000000000000000000602082015250565b60006134ac603283612582565b91506134b782613450565b604082019050919050565b600060208201905081810360008301526134db8161349f565b9050919050565b600081905092915050565b60006134f882612577565b61350281856134e2565b9350613512818560208601612593565b80840191505092915050565b600061352a82856134ed565b915061353682846134ed565b91508190509392505050565b7f4552433732313a206d696e7420746f20746865207a65726f2061646472657373600082015250565b6000613578602083612582565b915061358382613542565b602082019050919050565b600060208201905081810360008301526135a78161356b565b9050919050565b7f4552433732313a20746f6b656e20616c7265616479206d696e74656400000000600082015250565b60006135e4601c83612582565b91506135ef826135ae565b602082019050919050565b60006020820190508181036000830152613613816135d7565b9050919050565b7f45524337323155524953746f726167653a2055524920736574206f66206e6f6e60008201527f6578697374656e7420746f6b656e000000000000000000000000000000000000602082015250565b6000613676602e83612582565b91506136818261361a565b604082019050919050565b600060208201905081810360008301526136a581613669565b9050919050565b600081519050919050565b600082825260208201905092915050565b60006136d3826136ac565b6136dd81856136b7565b93506136ed818560208601612593565b6136f6816125c6565b840191505092915050565b600060808201905061371660008301876126c7565b61372360208301866126c7565b613730604083018561275d565b818103606083015261374281846136c8565b905095945050505050565b60008151905061375c816124e8565b92915050565b600060208284031215613778576137776124b2565b5b60006137868482850161374d565b91505092915050565b7f455243373231456e756d657261626c653a20636f6e736563757469766520747260008201527f616e7366657273206e6f7420737570706f727465640000000000000000000000602082015250565b60006137eb603583612582565b91506137f68261378f565b604082019050919050565b6000602082019050818103600083015261381a816137de565b9050919050565b7f4e487b7100000000000000000000000000000000000000000000000000000000600052601260045260246000fd5b600061385b82612632565b915061386683612632565b92508282101561387957613878612e96565b5b828203905092915050565b7f4e487b7100000000000000000000000000000000000000000000000000000000600052603160045260246000fdfea26469706673582212204fd196ca942ef36570b65b20902a410fa5365ea089f65abaa12f6efd054aa73a64736f6c63430008090033",
  "linkReferences": {},
  "deployedLinkReferences": {}
}