{
  "_format": "hh-sol-artifact-1",
  "contractName": "NhouseNFT",
  "sourceName": "contracts/NhouseNFT.sol",
  "abi": [
    {
      "inputs": [],
      "stateMutability": "nonpayable",
      "type": "constructor"
    },
    {
      "anonymous": false,
      "inputs": [
        {
          "indexed": true,
          "internalType": "address",
          "name": "owner",
          "type": "address"
        },
        {
          "indexed": true,
          "internalType": "address",
          "name": "approved",
          "type": "address"
        },
        {
          "indexed": true,
          "internalType": "uint256",
          "name": "tokenId",
          "type": "uint256"
        }
      ],
      "name": "Approval",
      "type": "event"
    },
    {
      "anonymous": false,
      "inputs": [
        {
          "indexed": true,
          "internalType": "address",
          "name": "owner",
          "type": "address"
        },
        {
          "indexed": true,
          "internalType": "address",
          "name": "operator",
          "type": "address"
        },
        {
          "indexed": false,
          "internalType": "bool",
          "name": "approved",
          "type": "bool"
        }
      ],
      "name": "ApprovalForAll",
      "type": "event"
    },
    {
      "anonymous": false,
      "inputs": [
        {
          "indexed": false,
          "internalType": "uint256",
          "name": "_fromTokenId",
          "type": "uint256"
        },
        {
          "indexed": false,
          "internalType": "uint256",
          "name": "_toTokenId",
          "type": "uint256"
        }
      ],
      "name": "BatchMetadataUpdate",
      "type": "event"
    },
    {
      "anonymous": false,
      "inputs": [
        {
          "indexed": false,
          "internalType": "uint256",
          "name": "_tokenId",
          "type": "uint256"
        }
      ],
      "name": "MetadataUpdate",
      "type": "event"
    },
    {
      "anonymous": false,
      "inputs": [
        {
          "indexed": true,
          "internalType": "address",
          "name": "previousOwner",
          "type": "address"
        },
        {
          "indexed": true,
          "internalType": "address",
          "name": "newOwner",
          "type": "address"
        }
      ],
      "name": "OwnershipTransferred",
      "type": "event"
    },
    {
      "anonymous": false,
      "inputs": [
        {
          "indexed": true,
          "internalType": "address",
          "name": "from",
          "type": "address"
        },
        {
          "indexed": true,
          "internalType": "address",
          "name": "to",
          "type": "address"
        },
        {
          "indexed": true,
          "internalType": "uint256",
          "name": "tokenId",
          "type": "uint256"
        }
      ],
      "name": "Transfer",
      "type": "event"
    },
    {
      "inputs": [
        {
          "internalType": "address",
          "name": "to",
          "type": "address"
        },
        {
          "internalType": "uint256",
          "name": "tokenId",
          "type": "uint256"
        }
      ],
      "name": "approve",
      "outputs": [],
      "stateMutability": "nonpayable",
      "type": "function"
    },
    {
      "inputs": [
        {
          "internalType": "address",
          "name": "owner",
          "type": "address"
        }
      ],
      "name": "balanceOf",
      "outputs": [
        {
          "internalType": "uint256",
          "name": "",
          "type": "uint256"
        }
      ],
      "stateMutability": "view",
      "type": "function"
    },
    {
      "inputs": [],
      "name": "getAllTokens",
      "outputs": [
        {
          "components": [
            {
              "internalType": "uint256",
              "name": "tokenId",
              "type": "uint256"
            },
            {
              "internalType": "string",
              "name": "tokenUri",
              "type": "string"
            }
          ],
          "internalType": "struct NhouseNFT.TokenInfo[]",
          "name": "",
          "type": "tuple[]"
        }
      ],
      "stateMutability": "view",
      "type": "function"
    },
    {
      "inputs": [
        {
          "internalType": "uint256",
          "name": "tokenId",
          "type": "uint256"
        }
      ],
      "name": "getApproved",
      "outputs": [
        {
          "internalType": "address",
          "name": "",
          "type": "address"
        }
      ],
      "stateMutability": "view",
      "type": "function"
    },
    {
      "inputs": [
        {
          "internalType": "address",
          "name": "address_",
          "type": "address"
        }
      ],
      "name": "getTokenUriFromAddress",
      "outputs": [
        {
          "components": [
            {
              "internalType": "uint256",
              "name": "tokenId",
              "type": "uint256"
            },
            {
              "internalType": "string",
              "name": "tokenUri",
              "type": "string"
            }
          ],
          "internalType": "struct NhouseNFT.TokenInfo[]",
          "name": "",
          "type": "tuple[]"
        }
      ],
      "stateMutability": "view",
      "type": "function"
    },
    {
      "inputs": [
        {
          "internalType": "address",
          "name": "owner",
          "type": "address"
        },
        {
          "internalType": "address",
          "name": "operator",
          "type": "address"
        }
      ],
      "name": "isApprovedForAll",
      "outputs": [
        {
          "internalType": "bool",
          "name": "",
          "type": "bool"
        }
      ],
      "stateMutability": "view",
      "type": "function"
    },
    {
      "inputs": [
        {
          "internalType": "address",
          "name": "recipient",
          "type": "address"
        },
        {
          "internalType": "string",
          "name": "tokenURI",
          "type": "string"
        }
      ],
      "name": "mintNFT",
      "outputs": [
        {
          "internalType": "uint256",
          "name": "",
          "type": "uint256"
        }
      ],
      "stateMutability": "nonpayable",
      "type": "function"
    },
    {
      "inputs": [],
      "name": "name",
      "outputs": [
        {
          "internalType": "string",
          "name": "",
          "type": "string"
        }
      ],
      "stateMutability": "view",
      "type": "function"
    },
    {
      "inputs": [],
      "name": "owner",
      "outputs": [
        {
          "internalType": "address",
          "name": "",
          "type": "address"
        }
      ],
      "stateMutability": "view",
      "type": "function"
    },
    {
      "inputs": [
        {
          "internalType": "uint256",
          "name": "tokenId",
          "type": "uint256"
        }
      ],
      "name": "ownerOf",
      "outputs": [
        {
          "internalType": "address",
          "name": "",
          "type": "address"
        }
      ],
      "stateMutability": "view",
      "type": "function"
    },
    {
      "inputs": [],
      "name": "renounceOwnership",
      "outputs": [],
      "stateMutability": "nonpayable",
      "type": "function"
    },
    {
      "inputs": [
        {
          "internalType": "address",
          "name": "from",
          "type": "address"
        },
        {
          "internalType": "address",
          "name": "to",
          "type": "address"
        },
        {
          "internalType": "uint256",
          "name": "tokenId",
          "type": "uint256"
        }
      ],
      "name": "safeTransferFrom",
      "outputs": [],
      "stateMutability": "nonpayable",
      "type": "function"
    },
    {
      "inputs": [
        {
          "internalType": "address",
          "name": "from",
          "type": "address"
        },
        {
          "internalType": "address",
          "name": "to",
          "type": "address"
        },
        {
          "internalType": "uint256",
          "name": "tokenId",
          "type": "uint256"
        },
        {
          "internalType": "bytes",
          "name": "data",
          "type": "bytes"
        }
      ],
      "name": "safeTransferFrom",
      "outputs": [],
      "stateMutability": "nonpayable",
      "type": "function"
    },
    {
      "inputs": [
        {
          "internalType": "address",
          "name": "operator",
          "type": "address"
        },
        {
          "internalType": "bool",
          "name": "approved",
          "type": "bool"
        }
      ],
      "name": "setApprovalForAll",
      "outputs": [],
      "stateMutability": "nonpayable",
      "type": "function"
    },
    {
      "inputs": [
        {
          "internalType": "bytes4",
          "name": "interfaceId",
          "type": "bytes4"
        }
      ],
      "name": "supportsInterface",
      "outputs": [
        {
          "internalType": "bool",
          "name": "",
          "type": "bool"
        }
      ],
      "stateMutability": "view",
      "type": "function"
    },
    {
      "inputs": [],
      "name": "symbol",
      "outputs": [
        {
          "internalType": "string",
          "name": "",
          "type": "string"
        }
      ],
      "stateMutability": "view",
      "type": "function"
    },
    {
      "inputs": [
        {
          "internalType": "uint256",
          "name": "index",
          "type": "uint256"
        }
      ],
      "name": "tokenByIndex",
      "outputs": [
        {
          "internalType": "uint256",
          "name": "",
          "type": "uint256"
        }
      ],
      "stateMutability": "view",
      "type": "function"
    },
    {
      "inputs": [
        {
          "internalType": "address",
          "name": "owner",
          "type": "address"
        },
        {
          "internalType": "uint256",
          "name": "index",
          "type": "uint256"
        }
      ],
      "name": "tokenOfOwnerByIndex",
      "outputs": [
        {
          "internalType": "uint256",
          "name": "",
          "type": "uint256"
        }
      ],
      "stateMutability": "view",
      "type": "function"
    },
    {
      "inputs": [
        {
          "internalType": "uint256",
          "name": "tokenId",
          "type": "uint256"
        }
      ],
      "name": "tokenURI",
      "outputs": [
        {
          "internalType": "string",
          "name": "",
          "type": "string"
        }
      ],
      "stateMutability": "view",
      "type": "function"
    },
    {
      "inputs": [],
      "name": "totalSupply",
      "outputs": [
        {
          "internalType": "uint256",
          "name": "",
          "type": "uint256"
        }
      ],
      "stateMutability": "view",
      "type": "function"
    },
    {
      "inputs": [
        {
          "internalType": "address",
          "name": "from",
          "type": "address"
        },
        {
          "internalType": "address",
          "name": "to",
          "type": "address"
        },
        {
          "internalType": "uint256",
          "name": "tokenId",
          "type": "uint256"
        }
      ],
      "name": "transferFrom",
      "outputs": [],
      "stateMutability": "nonpayable",
      "type": "function"
    },
    {
      "inputs": [
        {
          "internalType": "address",
          "name": "newOwner",
          "type": "address"
        }
      ],
      "name": "transferOwnership",
      "outputs": [],
      "stateMutability": "nonpayable",
      "type": "function"
    }
  ],
  "bytecode": "0x60806040523480156200001157600080fd5b506040518060400160405280600981526020017f4e686f7573654e465400000000000000000000000000000000000000000000008152506040518060400160405280600481526020017f4e4e465400000000000000000000000000000000000000000000000000000000815250816000908051906020019062000096929190620001a6565b508060019080519060200190620000af929190620001a6565b505050620000d2620000c6620000d860201b60201c565b620000e060201b60201c565b620002bb565b600033905090565b6000600b60009054906101000a900473ffffffffffffffffffffffffffffffffffffffff16905081600b60006101000a81548173ffffffffffffffffffffffffffffffffffffffff021916908373ffffffffffffffffffffffffffffffffffffffff1602179055508173ffffffffffffffffffffffffffffffffffffffff168173ffffffffffffffffffffffffffffffffffffffff167f8be0079c531659141344cd1fd0a4f28419497f9722a3daafe3b4186f6b6457e060405160405180910390a35050565b828054620001b49062000285565b90600052602060002090601f016020900481019282620001d8576000855562000224565b82601f10620001f357805160ff191683800117855562000224565b8280016001018555821562000224579182015b828111156200022357825182559160200191906001019062000206565b5b50905062000233919062000237565b5090565b5b808211156200025257600081600090555060010162000238565b5090565b7f4e487b7100000000000000000000000000000000000000000000000000000000600052602260045260246000fd5b600060028204905060018216806200029e57607f821691505b60208210811415620002b557620002b462000256565b5b50919050565b6139e880620002cb6000396000f3fe608060405234801561001057600080fd5b50600436106101425760003560e01c80636352211e116100b8578063a22cb4651161007c578063a22cb4651461038b578063b88d4fde146103a7578063c87b56dd146103c3578063e985e9c5146103f3578063eacabe1414610423578063f2fde38b1461045357610142565b80636352211e146102e557806370a0823114610315578063715018a6146103455780638da5cb5b1461034f57806395d89b411461036d57610142565b80631c7013611161010a5780631c701361146101ff57806323b872dd1461022f5780632a5c792a1461024b5780632f745c591461026957806342842e0e146102995780634f6ccce7146102b557610142565b806301ffc9a71461014757806306fdde0314610177578063081812fc14610195578063095ea7b3146101c557806318160ddd146101e1575b600080fd5b610161600480360381019061015c9190612613565b61046f565b60405161016e919061265b565b60405180910390f35b61017f610481565b60405161018c919061270f565b60405180910390f35b6101af60048036038101906101aa9190612767565b610513565b6040516101bc91906127d5565b60405180910390f35b6101df60048036038101906101da919061281c565b610559565b005b6101e9610671565b6040516101f6919061286b565b60405180910390f35b61021960048036038101906102149190612886565b61067e565b6040516102269190612a0b565b60405180910390f35b61024960048036038101906102449190612a2d565b610758565b005b6102536107b8565b6040516102609190612a0b565b60405180910390f35b610283600480360381019061027e919061281c565b61088e565b604051610290919061286b565b60405180910390f35b6102b360048036038101906102ae9190612a2d565b610933565b005b6102cf60048036038101906102ca9190612767565b610953565b6040516102dc919061286b565b60405180910390f35b6102ff60048036038101906102fa9190612767565b6109c4565b60405161030c91906127d5565b60405180910390f35b61032f600480360381019061032a9190612886565b610a4b565b60405161033c919061286b565b60405180910390f35b61034d610b03565b005b610357610b17565b60405161036491906127d5565b60405180910390f35b610375610b41565b604051610382919061270f565b60405180910390f35b6103a560048036038101906103a09190612aac565b610bd3565b005b6103c160048036038101906103bc9190612c21565b610be9565b005b6103dd60048036038101906103d89190612767565b610c4b565b6040516103ea919061270f565b60405180910390f35b61040d60048036038101906104089190612ca4565b610c5d565b60405161041a919061265b565b60405180910390f35b61043d60048036038101906104389190612d85565b610cf1565b60405161044a919061286b565b60405180910390f35b61046d60048036038101906104689190612886565b610d31565b005b600061047a82610db5565b9050919050565b60606000805461049090612e10565b80601f01602080910402602001604051908101604052809291908181526020018280546104bc90612e10565b80156105095780601f106104de57610100808354040283529160200191610509565b820191906000526020600020905b8154815290600101906020018083116104ec57829003601f168201915b5050505050905090565b600061051e82610e2f565b6004600083815260200190815260200160002060009054906101000a900473ffffffffffffffffffffffffffffffffffffffff169050919050565b6000610564826109c4565b90508073ffffffffffffffffffffffffffffffffffffffff168373ffffffffffffffffffffffffffffffffffffffff1614156105d5576040517f08c379a00000000000000000000000000000000000000000000000000000000081526004016105cc90612eb4565b60405180910390fd5b8073ffffffffffffffffffffffffffffffffffffffff166105f4610e7a565b73ffffffffffffffffffffffffffffffffffffffff16148061062357506106228161061d610e7a565b610c5d565b5b610662576040517f08c379a000000000000000000000000000000000000000000000000000000000815260040161065990612f46565b60405180910390fd5b61066c8383610e82565b505050565b6000600980549050905090565b6060600061068b83610a4b565b905060008167ffffffffffffffff8111156106a9576106a8612af6565b5b6040519080825280602002602001820160405280156106e257816020015b6106cf6124ea565b8152602001906001900390816106c75790505b50905060005b8281101561074d5760006106fc868361088e565b9050604051806040016040528082815260200161071883610c4b565b81525083838151811061072e5761072d612f66565b5b602002602001018190525050808061074590612fc4565b9150506106e8565b508092505050919050565b610769610763610e7a565b82610f3b565b6107a8576040517f08c379a000000000000000000000000000000000000000000000000000000000815260040161079f9061307f565b60405180910390fd5b6107b3838383610fd0565b505050565b606060006107c4610671565b905060008167ffffffffffffffff8111156107e2576107e1612af6565b5b60405190808252806020026020018201604052801561081b57816020015b6108086124ea565b8152602001906001900390816108005790505b50905060005b8281101561088557600061083482610953565b9050604051806040016040528082815260200161085083610c4b565b81525083838151811061086657610865612f66565b5b602002602001018190525050808061087d90612fc4565b915050610821565b50809250505090565b600061089983610a4b565b82106108da576040517f08c379a00000000000000000000000000000000000000000000000000000000081526004016108d190613111565b60405180910390fd5b600760008473ffffffffffffffffffffffffffffffffffffffff1673ffffffffffffffffffffffffffffffffffffffff168152602001908152602001600020600083815260200190815260200160002054905092915050565b61094e83838360405180602001604052806000815250610be9565b505050565b600061095d610671565b821061099e576040517f08c379a0000000000000000000000000000000000000000000000000000000008152600401610995906131a3565b60405180910390fd5b600982815481106109b2576109b1612f66565b5b90600052602060002001549050919050565b6000806109d0836112ca565b9050600073ffffffffffffffffffffffffffffffffffffffff168173ffffffffffffffffffffffffffffffffffffffff161415610a42576040517f08c379a0000000000000000000000000000000000000000000000000000000008152600401610a399061320f565b60405180910390fd5b80915050919050565b60008073ffffffffffffffffffffffffffffffffffffffff168273ffffffffffffffffffffffffffffffffffffffff161415610abc576040517f08c379a0000000000000000000000000000000000000000000000000000000008152600401610ab3906132a1565b60405180910390fd5b600360008373ffffffffffffffffffffffffffffffffffffffff1673ffffffffffffffffffffffffffffffffffffffff168152602001908152602001600020549050919050565b610b0b611307565b610b156000611385565b565b6000600b60009054906101000a900473ffffffffffffffffffffffffffffffffffffffff16905090565b606060018054610b5090612e10565b80601f0160208091040260200160405190810160405280929190818152602001828054610b7c90612e10565b8015610bc95780601f10610b9e57610100808354040283529160200191610bc9565b820191906000526020600020905b815481529060010190602001808311610bac57829003601f168201915b5050505050905090565b610be5610bde610e7a565b838361144b565b5050565b610bfa610bf4610e7a565b83610f3b565b610c39576040517f08c379a0000000000000000000000000000000000000000000000000000000008152600401610c309061307f565b60405180910390fd5b610c45848484846115b8565b50505050565b6060610c5682611614565b9050919050565b6000600560008473ffffffffffffffffffffffffffffffffffffffff1673ffffffffffffffffffffffffffffffffffffffff16815260200190815260200160002060008373ffffffffffffffffffffffffffffffffffffffff1673ffffffffffffffffffffffffffffffffffffffff16815260200190815260200160002060009054906101000a900460ff16905092915050565b6000610cfb611307565b610d05600c611727565b6000610d11600c61173d565b9050610d1d848261174b565b610d278184611969565b8091505092915050565b610d39611307565b600073ffffffffffffffffffffffffffffffffffffffff168173ffffffffffffffffffffffffffffffffffffffff161415610da9576040517f08c379a0000000000000000000000000000000000000000000000000000000008152600401610da090613333565b60405180910390fd5b610db281611385565b50565b60007f780e9d63000000000000000000000000000000000000000000000000000000007bffffffffffffffffffffffffffffffffffffffffffffffffffffffff1916827bffffffffffffffffffffffffffffffffffffffffffffffffffffffff19161480610e285750610e2782611a14565b5b9050919050565b610e3881611a75565b610e77576040517f08c379a0000000000000000000000000000000000000000000000000000000008152600401610e6e9061320f565b60405180910390fd5b50565b600033905090565b816004600083815260200190815260200160002060006101000a81548173ffffffffffffffffffffffffffffffffffffffff021916908373ffffffffffffffffffffffffffffffffffffffff160217905550808273ffffffffffffffffffffffffffffffffffffffff16610ef5836109c4565b73ffffffffffffffffffffffffffffffffffffffff167f8c5be1e5ebec7d5bd14f71427d1e84f3dd0314c0f7b2291e5b200ac8c7c3b92560405160405180910390a45050565b600080610f47836109c4565b90508073ffffffffffffffffffffffffffffffffffffffff168473ffffffffffffffffffffffffffffffffffffffff161480610f895750610f888185610c5d565b5b80610fc757508373ffffffffffffffffffffffffffffffffffffffff16610faf84610513565b73ffffffffffffffffffffffffffffffffffffffff16145b91505092915050565b8273ffffffffffffffffffffffffffffffffffffffff16610ff0826109c4565b73ffffffffffffffffffffffffffffffffffffffff1614611046576040517f08c379a000000000000000000000000000000000000000000000000000000000815260040161103d906133c5565b60405180910390fd5b600073ffffffffffffffffffffffffffffffffffffffff168273ffffffffffffffffffffffffffffffffffffffff1614156110b6576040517f08c379a00000000000000000000000000000000000000000000000000000000081526004016110ad90613457565b60405180910390fd5b6110c38383836001611ab6565b8273ffffffffffffffffffffffffffffffffffffffff166110e3826109c4565b73ffffffffffffffffffffffffffffffffffffffff1614611139576040517f08c379a0000000000000000000000000000000000000000000000000000000008152600401611130906133c5565b60405180910390fd5b6004600082815260200190815260200160002060006101000a81549073ffffffffffffffffffffffffffffffffffffffff02191690556001600360008573ffffffffffffffffffffffffffffffffffffffff1673ffffffffffffffffffffffffffffffffffffffff168152602001908152602001600020600082825403925050819055506001600360008473ffffffffffffffffffffffffffffffffffffffff1673ffffffffffffffffffffffffffffffffffffffff16815260200190815260200160002060008282540192505081905550816002600083815260200190815260200160002060006101000a81548173ffffffffffffffffffffffffffffffffffffffff021916908373ffffffffffffffffffffffffffffffffffffffff160217905550808273ffffffffffffffffffffffffffffffffffffffff168473ffffffffffffffffffffffffffffffffffffffff167fddf252ad1be2c89b69c2b068fc378daa952ba7f163c4a11628f55a4df523b3ef60405160405180910390a46112c58383836001611ac8565b505050565b60006002600083815260200190815260200160002060009054906101000a900473ffffffffffffffffffffffffffffffffffffffff169050919050565b61130f610e7a565b73ffffffffffffffffffffffffffffffffffffffff1661132d610b17565b73ffffffffffffffffffffffffffffffffffffffff1614611383576040517f08c379a000000000000000000000000000000000000000000000000000000000815260040161137a906134c3565b60405180910390fd5b565b6000600b60009054906101000a900473ffffffffffffffffffffffffffffffffffffffff16905081600b60006101000a81548173ffffffffffffffffffffffffffffffffffffffff021916908373ffffffffffffffffffffffffffffffffffffffff1602179055508173ffffffffffffffffffffffffffffffffffffffff168173ffffffffffffffffffffffffffffffffffffffff167f8be0079c531659141344cd1fd0a4f28419497f9722a3daafe3b4186f6b6457e060405160405180910390a35050565b8173ffffffffffffffffffffffffffffffffffffffff168373ffffffffffffffffffffffffffffffffffffffff1614156114ba576040517f08c379a00000000000000000000000000000000000000000000000000000000081526004016114b19061352f565b60405180910390fd5b80600560008573ffffffffffffffffffffffffffffffffffffffff1673ffffffffffffffffffffffffffffffffffffffff16815260200190815260200160002060008473ffffffffffffffffffffffffffffffffffffffff1673ffffffffffffffffffffffffffffffffffffffff16815260200190815260200160002060006101000a81548160ff0219169083151502179055508173ffffffffffffffffffffffffffffffffffffffff168373ffffffffffffffffffffffffffffffffffffffff167f17307eab39ab6107e8899845ad3d59bd9653f200f220920489ca2b5937696c31836040516115ab919061265b565b60405180910390a3505050565b6115c3848484610fd0565b6115cf84848484611ace565b61160e576040517f08c379a0000000000000000000000000000000000000000000000000000000008152600401611605906135c1565b60405180910390fd5b50505050565b606061161f82610e2f565b600060066000848152602001908152602001600020805461163f90612e10565b80601f016020809104026020016040519081016040528092919081815260200182805461166b90612e10565b80156116b85780601f1061168d576101008083540402835291602001916116b8565b820191906000526020600020905b81548152906001019060200180831161169b57829003601f168201915b5050505050905060006116c9611c65565b90506000815114156116df578192505050611722565b6000825111156117145780826040516020016116fc92919061361d565b60405160208183030381529060405292505050611722565b61171d84611c7c565b925050505b919050565b6001816000016000828254019250508190555050565b600081600001549050919050565b600073ffffffffffffffffffffffffffffffffffffffff168273ffffffffffffffffffffffffffffffffffffffff1614156117bb576040517f08c379a00000000000000000000000000000000000000000000000000000000081526004016117b29061368d565b60405180910390fd5b6117c481611a75565b15611804576040517f08c379a00000000000000000000000000000000000000000000000000000000081526004016117fb906136f9565b60405180910390fd5b611812600083836001611ab6565b61181b81611a75565b1561185b576040517f08c379a0000000000000000000000000000000000000000000000000000000008152600401611852906136f9565b60405180910390fd5b6001600360008473ffffffffffffffffffffffffffffffffffffffff1673ffffffffffffffffffffffffffffffffffffffff16815260200190815260200160002060008282540192505081905550816002600083815260200190815260200160002060006101000a81548173ffffffffffffffffffffffffffffffffffffffff021916908373ffffffffffffffffffffffffffffffffffffffff160217905550808273ffffffffffffffffffffffffffffffffffffffff16600073ffffffffffffffffffffffffffffffffffffffff167fddf252ad1be2c89b69c2b068fc378daa952ba7f163c4a11628f55a4df523b3ef60405160405180910390a4611965600083836001611ac8565b5050565b61197282611a75565b6119b1576040517f08c379a00000000000000000000000000000000000000000000000000000000081526004016119a89061378b565b60405180910390fd5b806006600084815260200190815260200160002090805190602001906119d8929190612504565b507ff8e1a15aba9398e019f0b49df1a4fde98ee17ae345cb5f6b5e2c27f5033e8ce782604051611a08919061286b565b60405180910390a15050565b6000634906490660e01b7bffffffffffffffffffffffffffffffffffffffffffffffffffffffff1916827bffffffffffffffffffffffffffffffffffffffffffffffffffffffff19161480611a6e5750611a6d82611ce4565b5b9050919050565b60008073ffffffffffffffffffffffffffffffffffffffff16611a97836112ca565b73ffffffffffffffffffffffffffffffffffffffff1614159050919050565b611ac284848484611dc6565b50505050565b50505050565b6000611aef8473ffffffffffffffffffffffffffffffffffffffff16611f26565b15611c58578373ffffffffffffffffffffffffffffffffffffffff1663150b7a02611b18610e7a565b8786866040518563ffffffff1660e01b8152600401611b3a9493929190613800565b602060405180830381600087803b158015611b5457600080fd5b505af1925050508015611b8557506040513d601f19601f82011682018060405250810190611b829190613861565b60015b611c08573d8060008114611bb5576040519150601f19603f3d011682016040523d82523d6000602084013e611bba565b606091505b50600081511415611c00576040517f08c379a0000000000000000000000000000000000000000000000000000000008152600401611bf7906135c1565b60405180910390fd5b805181602001fd5b63150b7a0260e01b7bffffffffffffffffffffffffffffffffffffffffffffffffffffffff1916817bffffffffffffffffffffffffffffffffffffffffffffffffffffffff191614915050611c5d565b600190505b949350505050565b606060405180602001604052806000815250905090565b6060611c8782610e2f565b6000611c91611c65565b90506000815111611cb15760405180602001604052806000815250611cdc565b80611cbb84611f49565b604051602001611ccc92919061361d565b6040516020818303038152906040525b915050919050565b60007f80ac58cd000000000000000000000000000000000000000000000000000000007bffffffffffffffffffffffffffffffffffffffffffffffffffffffff1916827bffffffffffffffffffffffffffffffffffffffffffffffffffffffff19161480611daf57507f5b5e139f000000000000000000000000000000000000000000000000000000007bffffffffffffffffffffffffffffffffffffffffffffffffffffffff1916827bffffffffffffffffffffffffffffffffffffffffffffffffffffffff1916145b80611dbf5750611dbe82612021565b5b9050919050565b611dd28484848461208b565b6001811115611e16576040517f08c379a0000000000000000000000000000000000000000000000000000000008152600401611e0d90613900565b60405180910390fd5b6000829050600073ffffffffffffffffffffffffffffffffffffffff168573ffffffffffffffffffffffffffffffffffffffff161415611e5e57611e5981612091565b611e9d565b8373ffffffffffffffffffffffffffffffffffffffff168573ffffffffffffffffffffffffffffffffffffffff1614611e9c57611e9b85826120da565b5b5b600073ffffffffffffffffffffffffffffffffffffffff168473ffffffffffffffffffffffffffffffffffffffff161415611ee057611edb81612247565b611f1f565b8473ffffffffffffffffffffffffffffffffffffffff168473ffffffffffffffffffffffffffffffffffffffff1614611f1e57611f1d8482612318565b5b5b5050505050565b6000808273ffffffffffffffffffffffffffffffffffffffff163b119050919050565b606060006001611f5884612397565b01905060008167ffffffffffffffff811115611f7757611f76612af6565b5b6040519080825280601f01601f191660200182016040528015611fa95781602001600182028036833780820191505090505b509050600082602001820190505b600115612016578080600190039150507f3031323334353637383961626364656600000000000000000000000000000000600a86061a8153600a858161200057611fff613920565b5b049450600085141561201157612016565b611fb7565b819350505050919050565b60007f01ffc9a7000000000000000000000000000000000000000000000000000000007bffffffffffffffffffffffffffffffffffffffffffffffffffffffff1916827bffffffffffffffffffffffffffffffffffffffffffffffffffffffff1916149050919050565b50505050565b600980549050600a600083815260200190815260200160002081905550600981908060018154018082558091505060019003906000526020600020016000909190919091505550565b600060016120e784610a4b565b6120f1919061394f565b90506000600860008481526020019081526020016000205490508181146121d6576000600760008673ffffffffffffffffffffffffffffffffffffffff1673ffffffffffffffffffffffffffffffffffffffff168152602001908152602001600020600084815260200190815260200160002054905080600760008773ffffffffffffffffffffffffffffffffffffffff1673ffffffffffffffffffffffffffffffffffffffff168152602001908152602001600020600084815260200190815260200160002081905550816008600083815260200190815260200160002081905550505b6008600084815260200190815260200160002060009055600760008573ffffffffffffffffffffffffffffffffffffffff1673ffffffffffffffffffffffffffffffffffffffff16815260200190815260200160002060008381526020019081526020016000206000905550505050565b6000600160098054905061225b919061394f565b90506000600a600084815260200190815260200160002054905060006009838154811061228b5761228a612f66565b5b9060005260206000200154905080600983815481106122ad576122ac612f66565b5b906000526020600020018190555081600a600083815260200190815260200160002081905550600a60008581526020019081526020016000206000905560098054806122fc576122fb613983565b5b6001900381819060005260206000200160009055905550505050565b600061232383610a4b565b905081600760008573ffffffffffffffffffffffffffffffffffffffff1673ffffffffffffffffffffffffffffffffffffffff168152602001908152602001600020600083815260200190815260200160002081905550806008600084815260200190815260200160002081905550505050565b600080600090507a184f03e93ff9f4daa797ed6e38ed64bf6a1f01000000000000000083106123f5577a184f03e93ff9f4daa797ed6e38ed64bf6a1f01000000000000000083816123eb576123ea613920565b5b0492506040810190505b6d04ee2d6d415b85acef81000000008310612432576d04ee2d6d415b85acef8100000000838161242857612427613920565b5b0492506020810190505b662386f26fc10000831061246157662386f26fc10000838161245757612456613920565b5b0492506010810190505b6305f5e100831061248a576305f5e10083816124805761247f613920565b5b0492506008810190505b61271083106124af5761271083816124a5576124a4613920565b5b0492506004810190505b606483106124d257606483816124c8576124c7613920565b5b0492506002810190505b600a83106124e1576001810190505b80915050919050565b604051806040016040528060008152602001606081525090565b82805461251090612e10565b90600052602060002090601f0160209004810192826125325760008555612579565b82601f1061254b57805160ff1916838001178555612579565b82800160010185558215612579579182015b8281111561257857825182559160200191906001019061255d565b5b509050612586919061258a565b5090565b5b808211156125a357600081600090555060010161258b565b5090565b6000604051905090565b600080fd5b600080fd5b60007fffffffff0000000000000000000000000000000000000000000000000000000082169050919050565b6125f0816125bb565b81146125fb57600080fd5b50565b60008135905061260d816125e7565b92915050565b600060208284031215612629576126286125b1565b5b6000612637848285016125fe565b91505092915050565b60008115159050919050565b61265581612640565b82525050565b6000602082019050612670600083018461264c565b92915050565b600081519050919050565b600082825260208201905092915050565b60005b838110156126b0578082015181840152602081019050612695565b838111156126bf576000848401525b50505050565b6000601f19601f8301169050919050565b60006126e182612676565b6126eb8185612681565b93506126fb818560208601612692565b612704816126c5565b840191505092915050565b6000602082019050818103600083015261272981846126d6565b905092915050565b6000819050919050565b61274481612731565b811461274f57600080fd5b50565b6000813590506127618161273b565b92915050565b60006020828403121561277d5761277c6125b1565b5b600061278b84828501612752565b91505092915050565b600073ffffffffffffffffffffffffffffffffffffffff82169050919050565b60006127bf82612794565b9050919050565b6127cf816127b4565b82525050565b60006020820190506127ea60008301846127c6565b92915050565b6127f9816127b4565b811461280457600080fd5b50565b600081359050612816816127f0565b92915050565b60008060408385031215612833576128326125b1565b5b600061284185828601612807565b925050602061285285828601612752565b9150509250929050565b61286581612731565b82525050565b6000602082019050612880600083018461285c565b92915050565b60006020828403121561289c5761289b6125b1565b5b60006128aa84828501612807565b91505092915050565b600081519050919050565b600082825260208201905092915050565b6000819050602082019050919050565b6128e881612731565b82525050565b600082825260208201905092915050565b600061290a82612676565b61291481856128ee565b9350612924818560208601612692565b61292d816126c5565b840191505092915050565b600060408301600083015161295060008601826128df565b506020830151848203602086015261296882826128ff565b9150508091505092915050565b60006129818383612938565b905092915050565b6000602082019050919050565b60006129a1826128b3565b6129ab81856128be565b9350836020820285016129bd856128cf565b8060005b858110156129f957848403895281516129da8582612975565b94506129e583612989565b925060208a019950506001810190506129c1565b50829750879550505050505092915050565b60006020820190508181036000830152612a258184612996565b905092915050565b600080600060608486031215612a4657612a456125b1565b5b6000612a5486828701612807565b9350506020612a6586828701612807565b9250506040612a7686828701612752565b9150509250925092565b612a8981612640565b8114612a9457600080fd5b50565b600081359050612aa681612a80565b92915050565b60008060408385031215612ac357612ac26125b1565b5b6000612ad185828601612807565b9250506020612ae285828601612a97565b9150509250929050565b600080fd5b600080fd5b7f4e487b7100000000000000000000000000000000000000000000000000000000600052604160045260246000fd5b612b2e826126c5565b810181811067ffffffffffffffff82111715612b4d57612b4c612af6565b5b80604052505050565b6000612b606125a7565b9050612b6c8282612b25565b919050565b600067ffffffffffffffff821115612b8c57612b8b612af6565b5b612b95826126c5565b9050602081019050919050565b82818337600083830152505050565b6000612bc4612bbf84612b71565b612b56565b905082815260208101848484011115612be057612bdf612af1565b5b612beb848285612ba2565b509392505050565b600082601f830112612c0857612c07612aec565b5b8135612c18848260208601612bb1565b91505092915050565b60008060008060808587031215612c3b57612c3a6125b1565b5b6000612c4987828801612807565b9450506020612c5a87828801612807565b9350506040612c6b87828801612752565b925050606085013567ffffffffffffffff811115612c8c57612c8b6125b6565b5b612c9887828801612bf3565b91505092959194509250565b60008060408385031215612cbb57612cba6125b1565b5b6000612cc985828601612807565b9250506020612cda85828601612807565b9150509250929050565b600067ffffffffffffffff821115612cff57612cfe612af6565b5b612d08826126c5565b9050602081019050919050565b6000612d28612d2384612ce4565b612b56565b905082815260208101848484011115612d4457612d43612af1565b5b612d4f848285612ba2565b509392505050565b600082601f830112612d6c57612d6b612aec565b5b8135612d7c848260208601612d15565b91505092915050565b60008060408385031215612d9c57612d9b6125b1565b5b6000612daa85828601612807565b925050602083013567ffffffffffffffff811115612dcb57612dca6125b6565b5b612dd785828601612d57565b9150509250929050565b7f4e487b7100000000000000000000000000000000000000000000000000000000600052602260045260246000fd5b60006002820490506001821680612e2857607f821691505b60208210811415612e3c57612e3b612de1565b5b50919050565b7f4552433732313a20617070726f76616c20746f2063757272656e74206f776e6560008201527f7200000000000000000000000000000000000000000000000000000000000000602082015250565b6000612e9e602183612681565b9150612ea982612e42565b604082019050919050565b60006020820190508181036000830152612ecd81612e91565b9050919050565b7f4552433732313a20617070726f76652063616c6c6572206973206e6f7420746f60008201527f6b656e206f776e6572206f7220617070726f76656420666f7220616c6c000000602082015250565b6000612f30603d83612681565b9150612f3b82612ed4565b604082019050919050565b60006020820190508181036000830152612f5f81612f23565b9050919050565b7f4e487b7100000000000000000000000000000000000000000000000000000000600052603260045260246000fd5b7f4e487b7100000000000000000000000000000000000000000000000000000000600052601160045260246000fd5b6000612fcf82612731565b91507fffffffffffffffffffffffffffffffffffffffffffffffffffffffffffffffff82141561300257613001612f95565b5b600182019050919050565b7f4552433732313a2063616c6c6572206973206e6f7420746f6b656e206f776e6560008201527f72206f7220617070726f76656400000000000000000000000000000000000000602082015250565b6000613069602d83612681565b91506130748261300d565b604082019050919050565b600060208201905081810360008301526130988161305c565b9050919050565b7f455243373231456e756d657261626c653a206f776e657220696e646578206f7560008201527f74206f6620626f756e6473000000000000000000000000000000000000000000602082015250565b60006130fb602b83612681565b91506131068261309f565b604082019050919050565b6000602082019050818103600083015261312a816130ee565b9050919050565b7f455243373231456e756d657261626c653a20676c6f62616c20696e646578206f60008201527f7574206f6620626f756e64730000000000000000000000000000000000000000602082015250565b600061318d602c83612681565b915061319882613131565b604082019050919050565b600060208201905081810360008301526131bc81613180565b9050919050565b7f4552433732313a20696e76616c696420746f6b656e2049440000000000000000600082015250565b60006131f9601883612681565b9150613204826131c3565b602082019050919050565b60006020820190508181036000830152613228816131ec565b9050919050565b7f4552433732313a2061646472657373207a65726f206973206e6f74206120766160008201527f6c6964206f776e65720000000000000000000000000000000000000000000000602082015250565b600061328b602983612681565b91506132968261322f565b604082019050919050565b600060208201905081810360008301526132ba8161327e565b9050919050565b7f4f776e61626c653a206e6577206f776e657220697320746865207a65726f206160008201527f6464726573730000000000000000000000000000000000000000000000000000602082015250565b600061331d602683612681565b9150613328826132c1565b604082019050919050565b6000602082019050818103600083015261334c81613310565b9050919050565b7f4552433732313a207472616e736665722066726f6d20696e636f72726563742060008201527f6f776e6572000000000000000000000000000000000000000000000000000000602082015250565b60006133af602583612681565b91506133ba82613353565b604082019050919050565b600060208201905081810360008301526133de816133a2565b9050919050565b7f4552433732313a207472616e7366657220746f20746865207a65726f2061646460008201527f7265737300000000000000000000000000000000000000000000000000000000602082015250565b6000613441602483612681565b915061344c826133e5565b604082019050919050565b6000602082019050818103600083015261347081613434565b9050919050565b7f4f776e61626c653a2063616c6c6572206973206e6f7420746865206f776e6572600082015250565b60006134ad602083612681565b91506134b882613477565b602082019050919050565b600060208201905081810360008301526134dc816134a0565b9050919050565b7f4552433732313a20617070726f766520746f2063616c6c657200000000000000600082015250565b6000613519601983612681565b9150613524826134e3565b602082019050919050565b600060208201905081810360008301526135488161350c565b9050919050565b7f4552433732313a207472616e7366657220746f206e6f6e20455243373231526560008201527f63656976657220696d706c656d656e7465720000000000000000000000000000602082015250565b60006135ab603283612681565b91506135b68261354f565b604082019050919050565b600060208201905081810360008301526135da8161359e565b9050919050565b600081905092915050565b60006135f782612676565b61360181856135e1565b9350613611818560208601612692565b80840191505092915050565b600061362982856135ec565b915061363582846135ec565b91508190509392505050565b7f4552433732313a206d696e7420746f20746865207a65726f2061646472657373600082015250565b6000613677602083612681565b915061368282613641565b602082019050919050565b600060208201905081810360008301526136a68161366a565b9050919050565b7f4552433732313a20746f6b656e20616c7265616479206d696e74656400000000600082015250565b60006136e3601c83612681565b91506136ee826136ad565b602082019050919050565b60006020820190508181036000830152613712816136d6565b9050919050565b7f45524337323155524953746f726167653a2055524920736574206f66206e6f6e60008201527f6578697374656e7420746f6b656e000000000000000000000000000000000000602082015250565b6000613775602e83612681565b915061378082613719565b604082019050919050565b600060208201905081810360008301526137a481613768565b9050919050565b600081519050919050565b600082825260208201905092915050565b60006137d2826137ab565b6137dc81856137b6565b93506137ec818560208601612692565b6137f5816126c5565b840191505092915050565b600060808201905061381560008301876127c6565b61382260208301866127c6565b61382f604083018561285c565b818103606083015261384181846137c7565b905095945050505050565b60008151905061385b816125e7565b92915050565b600060208284031215613877576138766125b1565b5b60006138858482850161384c565b91505092915050565b7f455243373231456e756d657261626c653a20636f6e736563757469766520747260008201527f616e7366657273206e6f7420737570706f727465640000000000000000000000602082015250565b60006138ea603583612681565b91506138f58261388e565b604082019050919050565b60006020820190508181036000830152613919816138dd565b9050919050565b7f4e487b7100000000000000000000000000000000000000000000000000000000600052601260045260246000fd5b600061395a82612731565b915061396583612731565b92508282101561397857613977612f95565b5b828203905092915050565b7f4e487b7100000000000000000000000000000000000000000000000000000000600052603160045260246000fdfea26469706673582212209a89054c1c7706643f1aa71039258c312fac4f22fd4032087e5d6de411d85d3e64736f6c63430008090033",
  "linkReferences": {},
  "deployedLinkReferences": {}
}