{
  "_format": "hh-sol-artifact-1",
  "contractName": "NhouseNFT",
  "sourceName": "contracts/NhouseNFT.sol",
  "abi": [
    {
      "inputs": [],
      "stateMutability": "nonpayable",
      "type": "constructor"
    },
    {
      "anonymous": false,
      "inputs": [
        {
          "indexed": true,
          "internalType": "address",
          "name": "owner",
          "type": "address"
        },
        {
          "indexed": true,
          "internalType": "address",
          "name": "approved",
          "type": "address"
        },
        {
          "indexed": true,
          "internalType": "uint256",
          "name": "tokenId",
          "type": "uint256"
        }
      ],
      "name": "Approval",
      "type": "event"
    },
    {
      "anonymous": false,
      "inputs": [
        {
          "indexed": true,
          "internalType": "address",
          "name": "owner",
          "type": "address"
        },
        {
          "indexed": true,
          "internalType": "address",
          "name": "operator",
          "type": "address"
        },
        {
          "indexed": false,
          "internalType": "bool",
          "name": "approved",
          "type": "bool"
        }
      ],
      "name": "ApprovalForAll",
      "type": "event"
    },
    {
      "anonymous": false,
      "inputs": [
        {
          "indexed": false,
          "internalType": "uint256",
          "name": "_fromTokenId",
          "type": "uint256"
        },
        {
          "indexed": false,
          "internalType": "uint256",
          "name": "_toTokenId",
          "type": "uint256"
        }
      ],
      "name": "BatchMetadataUpdate",
      "type": "event"
    },
    {
      "anonymous": false,
      "inputs": [
        {
          "indexed": false,
          "internalType": "uint256",
          "name": "_tokenId",
          "type": "uint256"
        }
      ],
      "name": "MetadataUpdate",
      "type": "event"
    },
    {
      "anonymous": false,
      "inputs": [
        {
          "indexed": true,
          "internalType": "address",
          "name": "previousOwner",
          "type": "address"
        },
        {
          "indexed": true,
          "internalType": "address",
          "name": "newOwner",
          "type": "address"
        }
      ],
      "name": "OwnershipTransferred",
      "type": "event"
    },
    {
      "anonymous": false,
      "inputs": [
        {
          "indexed": true,
          "internalType": "address",
          "name": "from",
          "type": "address"
        },
        {
          "indexed": true,
          "internalType": "address",
          "name": "to",
          "type": "address"
        },
        {
          "indexed": true,
          "internalType": "uint256",
          "name": "tokenId",
          "type": "uint256"
        }
      ],
      "name": "Transfer",
      "type": "event"
    },
    {
      "inputs": [
        {
          "internalType": "address",
          "name": "to",
          "type": "address"
        },
        {
          "internalType": "uint256",
          "name": "tokenId",
          "type": "uint256"
        }
      ],
      "name": "approve",
      "outputs": [],
      "stateMutability": "nonpayable",
      "type": "function"
    },
    {
      "inputs": [
        {
          "internalType": "address",
          "name": "owner",
          "type": "address"
        }
      ],
      "name": "balanceOf",
      "outputs": [
        {
          "internalType": "uint256",
          "name": "",
          "type": "uint256"
        }
      ],
      "stateMutability": "view",
      "type": "function"
    },
    {
      "inputs": [
        {
          "internalType": "address",
          "name": "recipient",
          "type": "address"
        },
        {
          "internalType": "string[]",
          "name": "tokenURIs",
          "type": "string[]"
        }
      ],
      "name": "batchMintNFT",
      "outputs": [
        {
          "internalType": "uint256[]",
          "name": "",
          "type": "uint256[]"
        }
      ],
      "stateMutability": "nonpayable",
      "type": "function"
    },
    {
      "inputs": [],
      "name": "getAllTokens",
      "outputs": [
        {
          "components": [
            {
              "internalType": "uint256",
              "name": "tokenId",
              "type": "uint256"
            },
            {
              "internalType": "string",
              "name": "tokenUri",
              "type": "string"
            }
          ],
          "internalType": "struct NhouseNFT.TokenInfo[]",
          "name": "",
          "type": "tuple[]"
        }
      ],
      "stateMutability": "view",
      "type": "function"
    },
    {
      "inputs": [
        {
          "internalType": "uint256",
          "name": "tokenId",
          "type": "uint256"
        }
      ],
      "name": "getApproved",
      "outputs": [
        {
          "internalType": "address",
          "name": "",
          "type": "address"
        }
      ],
      "stateMutability": "view",
      "type": "function"
    },
    {
      "inputs": [
        {
          "internalType": "address",
          "name": "address_",
          "type": "address"
        }
      ],
      "name": "getTokenUriFromAddress",
      "outputs": [
        {
          "components": [
            {
              "internalType": "uint256",
              "name": "tokenId",
              "type": "uint256"
            },
            {
              "internalType": "string",
              "name": "tokenUri",
              "type": "string"
            }
          ],
          "internalType": "struct NhouseNFT.TokenInfo[]",
          "name": "",
          "type": "tuple[]"
        }
      ],
      "stateMutability": "view",
      "type": "function"
    },
    {
      "inputs": [
        {
          "internalType": "address",
          "name": "owner",
          "type": "address"
        },
        {
          "internalType": "address",
          "name": "operator",
          "type": "address"
        }
      ],
      "name": "isApprovedForAll",
      "outputs": [
        {
          "internalType": "bool",
          "name": "",
          "type": "bool"
        }
      ],
      "stateMutability": "view",
      "type": "function"
    },
    {
      "inputs": [
        {
          "internalType": "address",
          "name": "recipient",
          "type": "address"
        },
        {
          "internalType": "string",
          "name": "tokenURI",
          "type": "string"
        }
      ],
      "name": "mintNFT",
      "outputs": [
        {
          "internalType": "uint256",
          "name": "",
          "type": "uint256"
        }
      ],
      "stateMutability": "nonpayable",
      "type": "function"
    },
    {
      "inputs": [],
      "name": "name",
      "outputs": [
        {
          "internalType": "string",
          "name": "",
          "type": "string"
        }
      ],
      "stateMutability": "view",
      "type": "function"
    },
    {
      "inputs": [],
      "name": "owner",
      "outputs": [
        {
          "internalType": "address",
          "name": "",
          "type": "address"
        }
      ],
      "stateMutability": "view",
      "type": "function"
    },
    {
      "inputs": [
        {
          "internalType": "uint256",
          "name": "tokenId",
          "type": "uint256"
        }
      ],
      "name": "ownerOf",
      "outputs": [
        {
          "internalType": "address",
          "name": "",
          "type": "address"
        }
      ],
      "stateMutability": "view",
      "type": "function"
    },
    {
      "inputs": [],
      "name": "renounceOwnership",
      "outputs": [],
      "stateMutability": "nonpayable",
      "type": "function"
    },
    {
      "inputs": [
        {
          "internalType": "address",
          "name": "from",
          "type": "address"
        },
        {
          "internalType": "address",
          "name": "to",
          "type": "address"
        },
        {
          "internalType": "uint256",
          "name": "tokenId",
          "type": "uint256"
        }
      ],
      "name": "safeTransferFrom",
      "outputs": [],
      "stateMutability": "nonpayable",
      "type": "function"
    },
    {
      "inputs": [
        {
          "internalType": "address",
          "name": "from",
          "type": "address"
        },
        {
          "internalType": "address",
          "name": "to",
          "type": "address"
        },
        {
          "internalType": "uint256",
          "name": "tokenId",
          "type": "uint256"
        },
        {
          "internalType": "bytes",
          "name": "data",
          "type": "bytes"
        }
      ],
      "name": "safeTransferFrom",
      "outputs": [],
      "stateMutability": "nonpayable",
      "type": "function"
    },
    {
      "inputs": [
        {
          "internalType": "address",
          "name": "operator",
          "type": "address"
        },
        {
          "internalType": "bool",
          "name": "approved",
          "type": "bool"
        }
      ],
      "name": "setApprovalForAll",
      "outputs": [],
      "stateMutability": "nonpayable",
      "type": "function"
    },
    {
      "inputs": [
        {
          "internalType": "bytes4",
          "name": "interfaceId",
          "type": "bytes4"
        }
      ],
      "name": "supportsInterface",
      "outputs": [
        {
          "internalType": "bool",
          "name": "",
          "type": "bool"
        }
      ],
      "stateMutability": "view",
      "type": "function"
    },
    {
      "inputs": [],
      "name": "symbol",
      "outputs": [
        {
          "internalType": "string",
          "name": "",
          "type": "string"
        }
      ],
      "stateMutability": "view",
      "type": "function"
    },
    {
      "inputs": [
        {
          "internalType": "uint256",
          "name": "index",
          "type": "uint256"
        }
      ],
      "name": "tokenByIndex",
      "outputs": [
        {
          "internalType": "uint256",
          "name": "",
          "type": "uint256"
        }
      ],
      "stateMutability": "view",
      "type": "function"
    },
    {
      "inputs": [
        {
          "internalType": "address",
          "name": "owner",
          "type": "address"
        },
        {
          "internalType": "uint256",
          "name": "index",
          "type": "uint256"
        }
      ],
      "name": "tokenOfOwnerByIndex",
      "outputs": [
        {
          "internalType": "uint256",
          "name": "",
          "type": "uint256"
        }
      ],
      "stateMutability": "view",
      "type": "function"
    },
    {
      "inputs": [
        {
          "internalType": "uint256",
          "name": "tokenId",
          "type": "uint256"
        }
      ],
      "name": "tokenURI",
      "outputs": [
        {
          "internalType": "string",
          "name": "",
          "type": "string"
        }
      ],
      "stateMutability": "view",
      "type": "function"
    },
    {
      "inputs": [],
      "name": "totalSupply",
      "outputs": [
        {
          "internalType": "uint256",
          "name": "",
          "type": "uint256"
        }
      ],
      "stateMutability": "view",
      "type": "function"
    },
    {
      "inputs": [
        {
          "internalType": "address",
          "name": "from",
          "type": "address"
        },
        {
          "internalType": "address",
          "name": "to",
          "type": "address"
        },
        {
          "internalType": "uint256",
          "name": "tokenId",
          "type": "uint256"
        }
      ],
      "name": "transferFrom",
      "outputs": [],
      "stateMutability": "nonpayable",
      "type": "function"
    },
    {
      "inputs": [
        {
          "internalType": "address",
          "name": "newOwner",
          "type": "address"
        }
      ],
      "name": "transferOwnership",
      "outputs": [],
      "stateMutability": "nonpayable",
      "type": "function"
    }
  ],
  "bytecode": "0x60806040523480156200001157600080fd5b506040518060400160405280600981526020017f4e686f7573654e465400000000000000000000000000000000000000000000008152506040518060400160405280600481526020017f4e4e465400000000000000000000000000000000000000000000000000000000815250816000908051906020019062000096929190620001a6565b508060019080519060200190620000af929190620001a6565b505050620000d2620000c6620000d860201b60201c565b620000e060201b60201c565b620002bb565b600033905090565b6000600b60009054906101000a900473ffffffffffffffffffffffffffffffffffffffff16905081600b60006101000a81548173ffffffffffffffffffffffffffffffffffffffff021916908373ffffffffffffffffffffffffffffffffffffffff1602179055508173ffffffffffffffffffffffffffffffffffffffff168173ffffffffffffffffffffffffffffffffffffffff167f8be0079c531659141344cd1fd0a4f28419497f9722a3daafe3b4186f6b6457e060405160405180910390a35050565b828054620001b49062000285565b90600052602060002090601f016020900481019282620001d8576000855562000224565b82601f10620001f357805160ff191683800117855562000224565b8280016001018555821562000224579182015b828111156200022357825182559160200191906001019062000206565b5b50905062000233919062000237565b5090565b5b808211156200025257600081600090555060010162000238565b5090565b7f4e487b7100000000000000000000000000000000000000000000000000000000600052602260045260246000fd5b600060028204905060018216806200029e57607f821691505b60208210811415620002b557620002b462000256565b5b50919050565b613d4d80620002cb6000396000f3fe608060405234801561001057600080fd5b506004361061014d5760003560e01c80636352211e116100c3578063b88d4fde1161007c578063b88d4fde146103b2578063c87b56dd146103ce578063dd2e2303146103fe578063e985e9c51461042e578063eacabe141461045e578063f2fde38b1461048e5761014d565b80636352211e146102f057806370a0823114610320578063715018a6146103505780638da5cb5b1461035a57806395d89b4114610378578063a22cb465146103965761014d565b80631c701361116101155780631c7013611461020a57806323b872dd1461023a5780632a5c792a146102565780632f745c591461027457806342842e0e146102a45780634f6ccce7146102c05761014d565b806301ffc9a71461015257806306fdde0314610182578063081812fc146101a0578063095ea7b3146101d057806318160ddd146101ec575b600080fd5b61016c60048036038101906101679190612765565b6104aa565b60405161017991906127ad565b60405180910390f35b61018a6104bc565b6040516101979190612861565b60405180910390f35b6101ba60048036038101906101b591906128b9565b61054e565b6040516101c79190612927565b60405180910390f35b6101ea60048036038101906101e5919061296e565b610594565b005b6101f46106ac565b60405161020191906129bd565b60405180910390f35b610224600480360381019061021f91906129d8565b6106b9565b6040516102319190612b5d565b60405180910390f35b610254600480360381019061024f9190612b7f565b610793565b005b61025e6107f3565b60405161026b9190612b5d565b60405180910390f35b61028e6004803603810190610289919061296e565b6108c9565b60405161029b91906129bd565b60405180910390f35b6102be60048036038101906102b99190612b7f565b61096e565b005b6102da60048036038101906102d591906128b9565b61098e565b6040516102e791906129bd565b60405180910390f35b61030a600480360381019061030591906128b9565b6109ff565b6040516103179190612927565b60405180910390f35b61033a600480360381019061033591906129d8565b610a86565b60405161034791906129bd565b60405180910390f35b610358610b3e565b005b610362610b52565b60405161036f9190612927565b60405180910390f35b610380610b7c565b60405161038d9190612861565b60405180910390f35b6103b060048036038101906103ab9190612bfe565b610c0e565b005b6103cc60048036038101906103c79190612d73565b610c24565b005b6103e860048036038101906103e391906128b9565b610c86565b6040516103f59190612861565b60405180910390f35b61041860048036038101906104139190612f7d565b610c98565b6040516104259190613088565b60405180910390f35b610448600480360381019061044391906130aa565b610daf565b60405161045591906127ad565b60405180910390f35b610478600480360381019061047391906130ea565b610e43565b60405161048591906129bd565b60405180910390f35b6104a860048036038101906104a391906129d8565b610e83565b005b60006104b582610f07565b9050919050565b6060600080546104cb90613175565b80601f01602080910402602001604051908101604052809291908181526020018280546104f790613175565b80156105445780601f1061051957610100808354040283529160200191610544565b820191906000526020600020905b81548152906001019060200180831161052757829003601f168201915b5050505050905090565b600061055982610f81565b6004600083815260200190815260200160002060009054906101000a900473ffffffffffffffffffffffffffffffffffffffff169050919050565b600061059f826109ff565b90508073ffffffffffffffffffffffffffffffffffffffff168373ffffffffffffffffffffffffffffffffffffffff161415610610576040517f08c379a000000000000000000000000000000000000000000000000000000000815260040161060790613219565b60405180910390fd5b8073ffffffffffffffffffffffffffffffffffffffff1661062f610fcc565b73ffffffffffffffffffffffffffffffffffffffff16148061065e575061065d81610658610fcc565b610daf565b5b61069d576040517f08c379a0000000000000000000000000000000000000000000000000000000008152600401610694906132ab565b60405180910390fd5b6106a78383610fd4565b505050565b6000600980549050905090565b606060006106c683610a86565b905060008167ffffffffffffffff8111156106e4576106e3612c48565b5b60405190808252806020026020018201604052801561071d57816020015b61070a61263c565b8152602001906001900390816107025790505b50905060005b8281101561078857600061073786836108c9565b9050604051806040016040528082815260200161075383610c86565b815250838381518110610769576107686132cb565b5b602002602001018190525050808061078090613329565b915050610723565b508092505050919050565b6107a461079e610fcc565b8261108d565b6107e3576040517f08c379a00000000000000000000000000000000000000000000000000000000081526004016107da906133e4565b60405180910390fd5b6107ee838383611122565b505050565b606060006107ff6106ac565b905060008167ffffffffffffffff81111561081d5761081c612c48565b5b60405190808252806020026020018201604052801561085657816020015b61084361263c565b81526020019060019003908161083b5790505b50905060005b828110156108c057600061086f8261098e565b9050604051806040016040528082815260200161088b83610c86565b8152508383815181106108a1576108a06132cb565b5b60200260200101819052505080806108b890613329565b91505061085c565b50809250505090565b60006108d483610a86565b8210610915576040517f08c379a000000000000000000000000000000000000000000000000000000000815260040161090c90613476565b60405180910390fd5b600760008473ffffffffffffffffffffffffffffffffffffffff1673ffffffffffffffffffffffffffffffffffffffff168152602001908152602001600020600083815260200190815260200160002054905092915050565b61098983838360405180602001604052806000815250610c24565b505050565b60006109986106ac565b82106109d9576040517f08c379a00000000000000000000000000000000000000000000000000000000081526004016109d090613508565b60405180910390fd5b600982815481106109ed576109ec6132cb565b5b90600052602060002001549050919050565b600080610a0b8361141c565b9050600073ffffffffffffffffffffffffffffffffffffffff168173ffffffffffffffffffffffffffffffffffffffff161415610a7d576040517f08c379a0000000000000000000000000000000000000000000000000000000008152600401610a7490613574565b60405180910390fd5b80915050919050565b60008073ffffffffffffffffffffffffffffffffffffffff168273ffffffffffffffffffffffffffffffffffffffff161415610af7576040517f08c379a0000000000000000000000000000000000000000000000000000000008152600401610aee90613606565b60405180910390fd5b600360008373ffffffffffffffffffffffffffffffffffffffff1673ffffffffffffffffffffffffffffffffffffffff168152602001908152602001600020549050919050565b610b46611459565b610b5060006114d7565b565b6000600b60009054906101000a900473ffffffffffffffffffffffffffffffffffffffff16905090565b606060018054610b8b90613175565b80601f0160208091040260200160405190810160405280929190818152602001828054610bb790613175565b8015610c045780601f10610bd957610100808354040283529160200191610c04565b820191906000526020600020905b815481529060010190602001808311610be757829003601f168201915b5050505050905090565b610c20610c19610fcc565b838361159d565b5050565b610c35610c2f610fcc565b8361108d565b610c74576040517f08c379a0000000000000000000000000000000000000000000000000000000008152600401610c6b906133e4565b60405180910390fd5b610c808484848461170a565b50505050565b6060610c9182611766565b9050919050565b6060610ca2611459565b6000825167ffffffffffffffff811115610cbf57610cbe612c48565b5b604051908082528060200260200182016040528015610ced5781602001602082028036833780820191505090505b50905060005b8351811015610da457610d06600c611879565b610d10600c61188f565b828281518110610d2357610d226132cb565b5b602002602001018181525050610d5385838381518110610d4657610d456132cb565b5b602002602001015161189d565b610d91828281518110610d6957610d686132cb565b5b6020026020010151858381518110610d8457610d836132cb565b5b6020026020010151611abb565b8080610d9c90613329565b915050610cf3565b508091505092915050565b6000600560008473ffffffffffffffffffffffffffffffffffffffff1673ffffffffffffffffffffffffffffffffffffffff16815260200190815260200160002060008373ffffffffffffffffffffffffffffffffffffffff1673ffffffffffffffffffffffffffffffffffffffff16815260200190815260200160002060009054906101000a900460ff16905092915050565b6000610e4d611459565b610e57600c611879565b6000610e63600c61188f565b9050610e6f848261189d565b610e798184611abb565b8091505092915050565b610e8b611459565b600073ffffffffffffffffffffffffffffffffffffffff168173ffffffffffffffffffffffffffffffffffffffff161415610efb576040517f08c379a0000000000000000000000000000000000000000000000000000000008152600401610ef290613698565b60405180910390fd5b610f04816114d7565b50565b60007f780e9d63000000000000000000000000000000000000000000000000000000007bffffffffffffffffffffffffffffffffffffffffffffffffffffffff1916827bffffffffffffffffffffffffffffffffffffffffffffffffffffffff19161480610f7a5750610f7982611b66565b5b9050919050565b610f8a81611bc7565b610fc9576040517f08c379a0000000000000000000000000000000000000000000000000000000008152600401610fc090613574565b60405180910390fd5b50565b600033905090565b816004600083815260200190815260200160002060006101000a81548173ffffffffffffffffffffffffffffffffffffffff021916908373ffffffffffffffffffffffffffffffffffffffff160217905550808273ffffffffffffffffffffffffffffffffffffffff16611047836109ff565b73ffffffffffffffffffffffffffffffffffffffff167f8c5be1e5ebec7d5bd14f71427d1e84f3dd0314c0f7b2291e5b200ac8c7c3b92560405160405180910390a45050565b600080611099836109ff565b90508073ffffffffffffffffffffffffffffffffffffffff168473ffffffffffffffffffffffffffffffffffffffff1614806110db57506110da8185610daf565b5b8061111957508373ffffffffffffffffffffffffffffffffffffffff166111018461054e565b73ffffffffffffffffffffffffffffffffffffffff16145b91505092915050565b8273ffffffffffffffffffffffffffffffffffffffff16611142826109ff565b73ffffffffffffffffffffffffffffffffffffffff1614611198576040517f08c379a000000000000000000000000000000000000000000000000000000000815260040161118f9061372a565b60405180910390fd5b600073ffffffffffffffffffffffffffffffffffffffff168273ffffffffffffffffffffffffffffffffffffffff161415611208576040517f08c379a00000000000000000000000000000000000000000000000000000000081526004016111ff906137bc565b60405180910390fd5b6112158383836001611c08565b8273ffffffffffffffffffffffffffffffffffffffff16611235826109ff565b73ffffffffffffffffffffffffffffffffffffffff161461128b576040517f08c379a00000000000000000000000000000000000000000000000000000000081526004016112829061372a565b60405180910390fd5b6004600082815260200190815260200160002060006101000a81549073ffffffffffffffffffffffffffffffffffffffff02191690556001600360008573ffffffffffffffffffffffffffffffffffffffff1673ffffffffffffffffffffffffffffffffffffffff168152602001908152602001600020600082825403925050819055506001600360008473ffffffffffffffffffffffffffffffffffffffff1673ffffffffffffffffffffffffffffffffffffffff16815260200190815260200160002060008282540192505081905550816002600083815260200190815260200160002060006101000a81548173ffffffffffffffffffffffffffffffffffffffff021916908373ffffffffffffffffffffffffffffffffffffffff160217905550808273ffffffffffffffffffffffffffffffffffffffff168473ffffffffffffffffffffffffffffffffffffffff167fddf252ad1be2c89b69c2b068fc378daa952ba7f163c4a11628f55a4df523b3ef60405160405180910390a46114178383836001611c1a565b505050565b60006002600083815260200190815260200160002060009054906101000a900473ffffffffffffffffffffffffffffffffffffffff169050919050565b611461610fcc565b73ffffffffffffffffffffffffffffffffffffffff1661147f610b52565b73ffffffffffffffffffffffffffffffffffffffff16146114d5576040517f08c379a00000000000000000000000000000000000000000000000000000000081526004016114cc90613828565b60405180910390fd5b565b6000600b60009054906101000a900473ffffffffffffffffffffffffffffffffffffffff16905081600b60006101000a81548173ffffffffffffffffffffffffffffffffffffffff021916908373ffffffffffffffffffffffffffffffffffffffff1602179055508173ffffffffffffffffffffffffffffffffffffffff168173ffffffffffffffffffffffffffffffffffffffff167f8be0079c531659141344cd1fd0a4f28419497f9722a3daafe3b4186f6b6457e060405160405180910390a35050565b8173ffffffffffffffffffffffffffffffffffffffff168373ffffffffffffffffffffffffffffffffffffffff16141561160c576040517f08c379a000000000000000000000000000000000000000000000000000000000815260040161160390613894565b60405180910390fd5b80600560008573ffffffffffffffffffffffffffffffffffffffff1673ffffffffffffffffffffffffffffffffffffffff16815260200190815260200160002060008473ffffffffffffffffffffffffffffffffffffffff1673ffffffffffffffffffffffffffffffffffffffff16815260200190815260200160002060006101000a81548160ff0219169083151502179055508173ffffffffffffffffffffffffffffffffffffffff168373ffffffffffffffffffffffffffffffffffffffff167f17307eab39ab6107e8899845ad3d59bd9653f200f220920489ca2b5937696c31836040516116fd91906127ad565b60405180910390a3505050565b611715848484611122565b61172184848484611c20565b611760576040517f08c379a000000000000000000000000000000000000000000000000000000000815260040161175790613926565b60405180910390fd5b50505050565b606061177182610f81565b600060066000848152602001908152602001600020805461179190613175565b80601f01602080910402602001604051908101604052809291908181526020018280546117bd90613175565b801561180a5780601f106117df5761010080835404028352916020019161180a565b820191906000526020600020905b8154815290600101906020018083116117ed57829003601f168201915b50505050509050600061181b611db7565b9050600081511415611831578192505050611874565b60008251111561186657808260405160200161184e929190613982565b60405160208183030381529060405292505050611874565b61186f84611dce565b925050505b919050565b6001816000016000828254019250508190555050565b600081600001549050919050565b600073ffffffffffffffffffffffffffffffffffffffff168273ffffffffffffffffffffffffffffffffffffffff16141561190d576040517f08c379a0000000000000000000000000000000000000000000000000000000008152600401611904906139f2565b60405180910390fd5b61191681611bc7565b15611956576040517f08c379a000000000000000000000000000000000000000000000000000000000815260040161194d90613a5e565b60405180910390fd5b611964600083836001611c08565b61196d81611bc7565b156119ad576040517f08c379a00000000000000000000000000000000000000000000000000000000081526004016119a490613a5e565b60405180910390fd5b6001600360008473ffffffffffffffffffffffffffffffffffffffff1673ffffffffffffffffffffffffffffffffffffffff16815260200190815260200160002060008282540192505081905550816002600083815260200190815260200160002060006101000a81548173ffffffffffffffffffffffffffffffffffffffff021916908373ffffffffffffffffffffffffffffffffffffffff160217905550808273ffffffffffffffffffffffffffffffffffffffff16600073ffffffffffffffffffffffffffffffffffffffff167fddf252ad1be2c89b69c2b068fc378daa952ba7f163c4a11628f55a4df523b3ef60405160405180910390a4611ab7600083836001611c1a565b5050565b611ac482611bc7565b611b03576040517f08c379a0000000000000000000000000000000000000000000000000000000008152600401611afa90613af0565b60405180910390fd5b80600660008481526020019081526020016000209080519060200190611b2a929190612656565b507ff8e1a15aba9398e019f0b49df1a4fde98ee17ae345cb5f6b5e2c27f5033e8ce782604051611b5a91906129bd565b60405180910390a15050565b6000634906490660e01b7bffffffffffffffffffffffffffffffffffffffffffffffffffffffff1916827bffffffffffffffffffffffffffffffffffffffffffffffffffffffff19161480611bc05750611bbf82611e36565b5b9050919050565b60008073ffffffffffffffffffffffffffffffffffffffff16611be98361141c565b73ffffffffffffffffffffffffffffffffffffffff1614159050919050565b611c1484848484611f18565b50505050565b50505050565b6000611c418473ffffffffffffffffffffffffffffffffffffffff16612078565b15611daa578373ffffffffffffffffffffffffffffffffffffffff1663150b7a02611c6a610fcc565b8786866040518563ffffffff1660e01b8152600401611c8c9493929190613b65565b602060405180830381600087803b158015611ca657600080fd5b505af1925050508015611cd757506040513d601f19601f82011682018060405250810190611cd49190613bc6565b60015b611d5a573d8060008114611d07576040519150601f19603f3d011682016040523d82523d6000602084013e611d0c565b606091505b50600081511415611d52576040517f08c379a0000000000000000000000000000000000000000000000000000000008152600401611d4990613926565b60405180910390fd5b805181602001fd5b63150b7a0260e01b7bffffffffffffffffffffffffffffffffffffffffffffffffffffffff1916817bffffffffffffffffffffffffffffffffffffffffffffffffffffffff191614915050611daf565b600190505b949350505050565b606060405180602001604052806000815250905090565b6060611dd982610f81565b6000611de3611db7565b90506000815111611e035760405180602001604052806000815250611e2e565b80611e0d8461209b565b604051602001611e1e929190613982565b6040516020818303038152906040525b915050919050565b60007f80ac58cd000000000000000000000000000000000000000000000000000000007bffffffffffffffffffffffffffffffffffffffffffffffffffffffff1916827bffffffffffffffffffffffffffffffffffffffffffffffffffffffff19161480611f0157507f5b5e139f000000000000000000000000000000000000000000000000000000007bffffffffffffffffffffffffffffffffffffffffffffffffffffffff1916827bffffffffffffffffffffffffffffffffffffffffffffffffffffffff1916145b80611f115750611f1082612173565b5b9050919050565b611f24848484846121dd565b6001811115611f68576040517f08c379a0000000000000000000000000000000000000000000000000000000008152600401611f5f90613c65565b60405180910390fd5b6000829050600073ffffffffffffffffffffffffffffffffffffffff168573ffffffffffffffffffffffffffffffffffffffff161415611fb057611fab816121e3565b611fef565b8373ffffffffffffffffffffffffffffffffffffffff168573ffffffffffffffffffffffffffffffffffffffff1614611fee57611fed858261222c565b5b5b600073ffffffffffffffffffffffffffffffffffffffff168473ffffffffffffffffffffffffffffffffffffffff1614156120325761202d81612399565b612071565b8473ffffffffffffffffffffffffffffffffffffffff168473ffffffffffffffffffffffffffffffffffffffff16146120705761206f848261246a565b5b5b5050505050565b6000808273ffffffffffffffffffffffffffffffffffffffff163b119050919050565b6060600060016120aa846124e9565b01905060008167ffffffffffffffff8111156120c9576120c8612c48565b5b6040519080825280601f01601f1916602001820160405280156120fb5781602001600182028036833780820191505090505b509050600082602001820190505b600115612168578080600190039150507f3031323334353637383961626364656600000000000000000000000000000000600a86061a8153600a858161215257612151613c85565b5b049450600085141561216357612168565b612109565b819350505050919050565b60007f01ffc9a7000000000000000000000000000000000000000000000000000000007bffffffffffffffffffffffffffffffffffffffffffffffffffffffff1916827bffffffffffffffffffffffffffffffffffffffffffffffffffffffff1916149050919050565b50505050565b600980549050600a600083815260200190815260200160002081905550600981908060018154018082558091505060019003906000526020600020016000909190919091505550565b6000600161223984610a86565b6122439190613cb4565b9050600060086000848152602001908152602001600020549050818114612328576000600760008673ffffffffffffffffffffffffffffffffffffffff1673ffffffffffffffffffffffffffffffffffffffff168152602001908152602001600020600084815260200190815260200160002054905080600760008773ffffffffffffffffffffffffffffffffffffffff1673ffffffffffffffffffffffffffffffffffffffff168152602001908152602001600020600084815260200190815260200160002081905550816008600083815260200190815260200160002081905550505b6008600084815260200190815260200160002060009055600760008573ffffffffffffffffffffffffffffffffffffffff1673ffffffffffffffffffffffffffffffffffffffff16815260200190815260200160002060008381526020019081526020016000206000905550505050565b600060016009805490506123ad9190613cb4565b90506000600a60008481526020019081526020016000205490506000600983815481106123dd576123dc6132cb565b5b9060005260206000200154905080600983815481106123ff576123fe6132cb565b5b906000526020600020018190555081600a600083815260200190815260200160002081905550600a600085815260200190815260200160002060009055600980548061244e5761244d613ce8565b5b6001900381819060005260206000200160009055905550505050565b600061247583610a86565b905081600760008573ffffffffffffffffffffffffffffffffffffffff1673ffffffffffffffffffffffffffffffffffffffff168152602001908152602001600020600083815260200190815260200160002081905550806008600084815260200190815260200160002081905550505050565b600080600090507a184f03e93ff9f4daa797ed6e38ed64bf6a1f0100000000000000008310612547577a184f03e93ff9f4daa797ed6e38ed64bf6a1f010000000000000000838161253d5761253c613c85565b5b0492506040810190505b6d04ee2d6d415b85acef81000000008310612584576d04ee2d6d415b85acef8100000000838161257a57612579613c85565b5b0492506020810190505b662386f26fc1000083106125b357662386f26fc1000083816125a9576125a8613c85565b5b0492506010810190505b6305f5e10083106125dc576305f5e10083816125d2576125d1613c85565b5b0492506008810190505b61271083106126015761271083816125f7576125f6613c85565b5b0492506004810190505b60648310612624576064838161261a57612619613c85565b5b0492506002810190505b600a8310612633576001810190505b80915050919050565b604051806040016040528060008152602001606081525090565b82805461266290613175565b90600052602060002090601f01602090048101928261268457600085556126cb565b82601f1061269d57805160ff19168380011785556126cb565b828001600101855582156126cb579182015b828111156126ca5782518255916020019190600101906126af565b5b5090506126d891906126dc565b5090565b5b808211156126f55760008160009055506001016126dd565b5090565b6000604051905090565b600080fd5b600080fd5b60007fffffffff0000000000000000000000000000000000000000000000000000000082169050919050565b6127428161270d565b811461274d57600080fd5b50565b60008135905061275f81612739565b92915050565b60006020828403121561277b5761277a612703565b5b600061278984828501612750565b91505092915050565b60008115159050919050565b6127a781612792565b82525050565b60006020820190506127c2600083018461279e565b92915050565b600081519050919050565b600082825260208201905092915050565b60005b838110156128025780820151818401526020810190506127e7565b83811115612811576000848401525b50505050565b6000601f19601f8301169050919050565b6000612833826127c8565b61283d81856127d3565b935061284d8185602086016127e4565b61285681612817565b840191505092915050565b6000602082019050818103600083015261287b8184612828565b905092915050565b6000819050919050565b61289681612883565b81146128a157600080fd5b50565b6000813590506128b38161288d565b92915050565b6000602082840312156128cf576128ce612703565b5b60006128dd848285016128a4565b91505092915050565b600073ffffffffffffffffffffffffffffffffffffffff82169050919050565b6000612911826128e6565b9050919050565b61292181612906565b82525050565b600060208201905061293c6000830184612918565b92915050565b61294b81612906565b811461295657600080fd5b50565b60008135905061296881612942565b92915050565b6000806040838503121561298557612984612703565b5b600061299385828601612959565b92505060206129a4858286016128a4565b9150509250929050565b6129b781612883565b82525050565b60006020820190506129d260008301846129ae565b92915050565b6000602082840312156129ee576129ed612703565b5b60006129fc84828501612959565b91505092915050565b600081519050919050565b600082825260208201905092915050565b6000819050602082019050919050565b612a3a81612883565b82525050565b600082825260208201905092915050565b6000612a5c826127c8565b612a668185612a40565b9350612a768185602086016127e4565b612a7f81612817565b840191505092915050565b6000604083016000830151612aa26000860182612a31565b5060208301518482036020860152612aba8282612a51565b9150508091505092915050565b6000612ad38383612a8a565b905092915050565b6000602082019050919050565b6000612af382612a05565b612afd8185612a10565b935083602082028501612b0f85612a21565b8060005b85811015612b4b5784840389528151612b2c8582612ac7565b9450612b3783612adb565b925060208a01995050600181019050612b13565b50829750879550505050505092915050565b60006020820190508181036000830152612b778184612ae8565b905092915050565b600080600060608486031215612b9857612b97612703565b5b6000612ba686828701612959565b9350506020612bb786828701612959565b9250506040612bc8868287016128a4565b9150509250925092565b612bdb81612792565b8114612be657600080fd5b50565b600081359050612bf881612bd2565b92915050565b60008060408385031215612c1557612c14612703565b5b6000612c2385828601612959565b9250506020612c3485828601612be9565b9150509250929050565b600080fd5b600080fd5b7f4e487b7100000000000000000000000000000000000000000000000000000000600052604160045260246000fd5b612c8082612817565b810181811067ffffffffffffffff82111715612c9f57612c9e612c48565b5b80604052505050565b6000612cb26126f9565b9050612cbe8282612c77565b919050565b600067ffffffffffffffff821115612cde57612cdd612c48565b5b612ce782612817565b9050602081019050919050565b82818337600083830152505050565b6000612d16612d1184612cc3565b612ca8565b905082815260208101848484011115612d3257612d31612c43565b5b612d3d848285612cf4565b509392505050565b600082601f830112612d5a57612d59612c3e565b5b8135612d6a848260208601612d03565b91505092915050565b60008060008060808587031215612d8d57612d8c612703565b5b6000612d9b87828801612959565b9450506020612dac87828801612959565b9350506040612dbd878288016128a4565b925050606085013567ffffffffffffffff811115612dde57612ddd612708565b5b612dea87828801612d45565b91505092959194509250565b600067ffffffffffffffff821115612e1157612e10612c48565b5b602082029050602081019050919050565b600080fd5b600067ffffffffffffffff821115612e4257612e41612c48565b5b612e4b82612817565b9050602081019050919050565b6000612e6b612e6684612e27565b612ca8565b905082815260208101848484011115612e8757612e86612c43565b5b612e92848285612cf4565b509392505050565b600082601f830112612eaf57612eae612c3e565b5b8135612ebf848260208601612e58565b91505092915050565b6000612edb612ed684612df6565b612ca8565b90508083825260208201905060208402830185811115612efe57612efd612e22565b5b835b81811015612f4557803567ffffffffffffffff811115612f2357612f22612c3e565b5b808601612f308982612e9a565b85526020850194505050602081019050612f00565b5050509392505050565b600082601f830112612f6457612f63612c3e565b5b8135612f74848260208601612ec8565b91505092915050565b60008060408385031215612f9457612f93612703565b5b6000612fa285828601612959565b925050602083013567ffffffffffffffff811115612fc357612fc2612708565b5b612fcf85828601612f4f565b9150509250929050565b600081519050919050565b600082825260208201905092915050565b6000819050602082019050919050565b60006130118383612a31565b60208301905092915050565b6000602082019050919050565b600061303582612fd9565b61303f8185612fe4565b935061304a83612ff5565b8060005b8381101561307b5781516130628882613005565b975061306d8361301d565b92505060018101905061304e565b5085935050505092915050565b600060208201905081810360008301526130a2818461302a565b905092915050565b600080604083850312156130c1576130c0612703565b5b60006130cf85828601612959565b92505060206130e085828601612959565b9150509250929050565b6000806040838503121561310157613100612703565b5b600061310f85828601612959565b925050602083013567ffffffffffffffff8111156131305761312f612708565b5b61313c85828601612e9a565b9150509250929050565b7f4e487b7100000000000000000000000000000000000000000000000000000000600052602260045260246000fd5b6000600282049050600182168061318d57607f821691505b602082108114156131a1576131a0613146565b5b50919050565b7f4552433732313a20617070726f76616c20746f2063757272656e74206f776e6560008201527f7200000000000000000000000000000000000000000000000000000000000000602082015250565b60006132036021836127d3565b915061320e826131a7565b604082019050919050565b60006020820190508181036000830152613232816131f6565b9050919050565b7f4552433732313a20617070726f76652063616c6c6572206973206e6f7420746f60008201527f6b656e206f776e6572206f7220617070726f76656420666f7220616c6c000000602082015250565b6000613295603d836127d3565b91506132a082613239565b604082019050919050565b600060208201905081810360008301526132c481613288565b9050919050565b7f4e487b7100000000000000000000000000000000000000000000000000000000600052603260045260246000fd5b7f4e487b7100000000000000000000000000000000000000000000000000000000600052601160045260246000fd5b600061333482612883565b91507fffffffffffffffffffffffffffffffffffffffffffffffffffffffffffffffff821415613367576133666132fa565b5b600182019050919050565b7f4552433732313a2063616c6c6572206973206e6f7420746f6b656e206f776e6560008201527f72206f7220617070726f76656400000000000000000000000000000000000000602082015250565b60006133ce602d836127d3565b91506133d982613372565b604082019050919050565b600060208201905081810360008301526133fd816133c1565b9050919050565b7f455243373231456e756d657261626c653a206f776e657220696e646578206f7560008201527f74206f6620626f756e6473000000000000000000000000000000000000000000602082015250565b6000613460602b836127d3565b915061346b82613404565b604082019050919050565b6000602082019050818103600083015261348f81613453565b9050919050565b7f455243373231456e756d657261626c653a20676c6f62616c20696e646578206f60008201527f7574206f6620626f756e64730000000000000000000000000000000000000000602082015250565b60006134f2602c836127d3565b91506134fd82613496565b604082019050919050565b60006020820190508181036000830152613521816134e5565b9050919050565b7f4552433732313a20696e76616c696420746f6b656e2049440000000000000000600082015250565b600061355e6018836127d3565b915061356982613528565b602082019050919050565b6000602082019050818103600083015261358d81613551565b9050919050565b7f4552433732313a2061646472657373207a65726f206973206e6f74206120766160008201527f6c6964206f776e65720000000000000000000000000000000000000000000000602082015250565b60006135f06029836127d3565b91506135fb82613594565b604082019050919050565b6000602082019050818103600083015261361f816135e3565b9050919050565b7f4f776e61626c653a206e6577206f776e657220697320746865207a65726f206160008201527f6464726573730000000000000000000000000000000000000000000000000000602082015250565b60006136826026836127d3565b915061368d82613626565b604082019050919050565b600060208201905081810360008301526136b181613675565b9050919050565b7f4552433732313a207472616e736665722066726f6d20696e636f72726563742060008201527f6f776e6572000000000000000000000000000000000000000000000000000000602082015250565b60006137146025836127d3565b915061371f826136b8565b604082019050919050565b6000602082019050818103600083015261374381613707565b9050919050565b7f4552433732313a207472616e7366657220746f20746865207a65726f2061646460008201527f7265737300000000000000000000000000000000000000000000000000000000602082015250565b60006137a66024836127d3565b91506137b18261374a565b604082019050919050565b600060208201905081810360008301526137d581613799565b9050919050565b7f4f776e61626c653a2063616c6c6572206973206e6f7420746865206f776e6572600082015250565b60006138126020836127d3565b915061381d826137dc565b602082019050919050565b6000602082019050818103600083015261384181613805565b9050919050565b7f4552433732313a20617070726f766520746f2063616c6c657200000000000000600082015250565b600061387e6019836127d3565b915061388982613848565b602082019050919050565b600060208201905081810360008301526138ad81613871565b9050919050565b7f4552433732313a207472616e7366657220746f206e6f6e20455243373231526560008201527f63656976657220696d706c656d656e7465720000000000000000000000000000602082015250565b60006139106032836127d3565b915061391b826138b4565b604082019050919050565b6000602082019050818103600083015261393f81613903565b9050919050565b600081905092915050565b600061395c826127c8565b6139668185613946565b93506139768185602086016127e4565b80840191505092915050565b600061398e8285613951565b915061399a8284613951565b91508190509392505050565b7f4552433732313a206d696e7420746f20746865207a65726f2061646472657373600082015250565b60006139dc6020836127d3565b91506139e7826139a6565b602082019050919050565b60006020820190508181036000830152613a0b816139cf565b9050919050565b7f4552433732313a20746f6b656e20616c7265616479206d696e74656400000000600082015250565b6000613a48601c836127d3565b9150613a5382613a12565b602082019050919050565b60006020820190508181036000830152613a7781613a3b565b9050919050565b7f45524337323155524953746f726167653a2055524920736574206f66206e6f6e60008201527f6578697374656e7420746f6b656e000000000000000000000000000000000000602082015250565b6000613ada602e836127d3565b9150613ae582613a7e565b604082019050919050565b60006020820190508181036000830152613b0981613acd565b9050919050565b600081519050919050565b600082825260208201905092915050565b6000613b3782613b10565b613b418185613b1b565b9350613b518185602086016127e4565b613b5a81612817565b840191505092915050565b6000608082019050613b7a6000830187612918565b613b876020830186612918565b613b9460408301856129ae565b8181036060830152613ba68184613b2c565b905095945050505050565b600081519050613bc081612739565b92915050565b600060208284031215613bdc57613bdb612703565b5b6000613bea84828501613bb1565b91505092915050565b7f455243373231456e756d657261626c653a20636f6e736563757469766520747260008201527f616e7366657273206e6f7420737570706f727465640000000000000000000000602082015250565b6000613c4f6035836127d3565b9150613c5a82613bf3565b604082019050919050565b60006020820190508181036000830152613c7e81613c42565b9050919050565b7f4e487b7100000000000000000000000000000000000000000000000000000000600052601260045260246000fd5b6000613cbf82612883565b9150613cca83612883565b925082821015613cdd57613cdc6132fa565b5b828203905092915050565b7f4e487b7100000000000000000000000000000000000000000000000000000000600052603160045260246000fdfea26469706673582212208f98b7103c495697ad96a4c1a512b1de5c50e9e73151aabd8083bce2fe0b277864736f6c63430008090033",
  "linkReferences": {},
  "deployedLinkReferences": {}
}